:020000040800F2
:1000000000100020E5210008891500088B15000864
:1000100000000000000000000000000000000000E0
:100020000000000000000000000000008D15000826
:1000300000000000000000008F1500089115000866
:100040003522000800000000352200083522000893
:100050003522000835220008352200083522000824
:100060000000000035220008352200083522000873
:100070003522000835220008352200080000000063
:1000800035220008000000000000000035220008B2
:100090000000000035220008352200083522000843
:1000A0000000000035220008000000003522000892
:1000B0000000000000000000000000000000000040
:1000C00010B5064C2378002B07D1054B002B02D02E
:1000D000044800E000BF0123237010BD040000208D
:1000E0000000000080220008084B10B5002B03D050
:1000F0000749084800E000BF07480368002B00D10B
:1001000010BD064B002BFBD09847F9E7000000001C
:1001100008000020802200080400002000000000E9
:10012000002243088B4274D303098B425FD3030A36
:100130008B4244D3030B8B4228D3030C8B420DD349
:10014000FF22090212BA030C8B4202D312120902D7
:1001500065D0030B8B4219D300E0090AC30B8B4215
:1001600001D3CB03C01A5241830B8B4201D38B03C3
:10017000C01A5241430B8B4201D34B03C01A524168
:10018000030B8B4201D30B03C01A5241C30A8B42AB
:1001900001D3CB02C01A5241830A8B4201D38B0296
:1001A000C01A5241430A8B4201D34B02C01A52413A
:1001B000030A8B4201D30B02C01A5241CDD2C309AC
:1001C0008B4201D3CB01C01A524183098B4201D328
:1001D0008B01C01A524143098B4201D34B01C01A13
:1001E000524103098B4201D30B01C01A5241C3088B
:1001F0008B4201D3CB00C01A524183088B4201D3FA
:100200008B00C01A524143088B4201D34B00C01AE5
:100210005241411A00D20146524110467047FFE751
:1002200001B5002000F006F802BDC0460029F7D055
:1002300076E770477047C046F0B53C23C35C012B9E
:100240001ED03C22012585543D2402230355066817
:1002500073687027BB437360066873680F683B431D
:1002600073600668B3688027BB43B3600668B368F1
:1002700049680B43B3600555002383540020F0BD4B
:100280000220FCE770B53C23C35C012B28D03C2244
:10029000012585543D2402230355124BCE6833407B
:1002A0008E683343104E33404E6833430F4E334015
:1002B0000E6833430E4E33400E6933430D4E3340C8
:1002C0004E6933430C4E334089690B430B4E334028
:1002D0000B4301684B64055500238354002070BD17
:1002E0000220FCE7FFFCFFFFFFFBFFFFFFF7FFFF24
:1002F000FFEFFFFFFFDFFFFFFFBFFFFFFF7FFFFFFE
:1003000070B5002811DB8308144DC0339B005C5985
:1003100003221040C000FC3216008640B44389011D
:100320000A40824022435A5170BDC0B20F2303409D
:10033000083B9B0806339B00094A944663445D686A
:1003400003221040C000FF2422008240954389010F
:100350000C4084402C435C60E6E7C04600E100E0CE
:1003600000ED00E001380A4B98420FD8094A50606E
:100370000948036A1B021B0AC02109060B430362DA
:100380000023936007331360002070470120FCE7CF
:10039000FFFFFF0010E000E000ED00E0042805D0C2
:1003A000054A136804218B4313607047024A13689F
:1003B00004210B431360F8E710E000E0704710B52C
:1003C000FFF7FCFF10BD000070B582B004000368A9
:1003D000DB0736D5C14B5A680C231340042B28D0B9
:1003E000BE4B5A680C231340082B1ED06368012BA8
:1003F0004BD0002B50D1B94B1A68B9490A401A604A
:100400001A68B8490A401A606368002B5CD000F093
:100410009FFD0500B14B1B689B0312D400F098FDB3
:10042000401B6428F6D90320EAE1AC4B5B68DB0390
:10043000DCD5AA4B1B689B0303D56368002B00D156
:10044000DBE123689B0762D5A44B5B680C221A4250
:100450004CD0A24B5A680C231340082B42D0E368BF
:10046000002B76D09D4A136801210B43136000F0E6
:100470006FFD0500994B1B689B0761D400F068FD78
:10048000401B0228F6D90320BAE1944A1168802360
:100490005B020B431360B7E7052B09D08F4B1A683B
:1004A0008F490A401A601A688E490A401A60ABE701
:1004B0008A4B19688022D2020A431A601968802286
:1004C00052020A431A609FE700F042FD0500834B89
:1004D0001B689B03B5D500F03BFD401B6428F6D993
:1004E00003208DE17D4B5B68DB03B8D47B4B1B683D
:1004F0009B0704D5E368012B01D0012080E17749F7
:100500000B68F82293432269D20013430B602368DF
:100510001B0744D5E369002B2ED0704A536A012192
:100520000B43536200F014FD05006C4B5B6A9B07A4
:1005300035D400F00DFD401B0228F6D903205FE101
:1005400066490B68F82293432269D20013430B607B
:10055000DDE7624A136801218B43136000F0F8FC69
:1005600005005E4B1B689B07D1D500F0F1FC401BDA
:100570000228F6D9032043E1584A536A01218B43EC
:10058000536200F0E5FC0500544B5B6A9B0706D5FF
:1005900000F0DEFC401B0228F6D9032030E123687E
:1005A0005B0775D54D4BDB69DB002ED44B4AD16917
:1005B000802040050143D161D36903400193019B31
:1005C0000125494B1B68DB0521D5A368012B32D0DF
:1005D000002B36D1414B1A6A01218A431A621A6AEA
:1005E00003318A431A62A368002B40D000F0B0FCAC
:1005F00006003A4B1B6A9B0748D400F0A9FC801BFD
:100600003A4B9842F5D90320FAE00025D9E7364A5B
:10061000116880235B000B43136000F099FC060017
:10062000314B1B68DB05D0D400F092FC801B6428A2
:10063000F6D90320E4E0294A136A01210B4313622F
:10064000D1E7052B09D0254B1A6A01218A431A628A
:100650001A6A03318A431A62C5E7204B1A6A0421D9
:100660000A431A621A6A03390A431A62BBE700F0A6
:100670006FFC0600194B1B6A9B0707D500F068FC4E
:10068000801B1A4B9842F5D90320B9E0012D1ED0EA
:100690002368DB065AD56369012B2BD0053349D07B
:1006A0000E4B5A6B04210A435A635A6B03398A432F
:1006B0005A6300F04DFC0500084B5B6B9B0745D56A
:1006C00000F046FC401B0228F6D9032098E0034ABC
:1006D000D36907490B40D361DAE7C04600100240F6
:1006E000FFFFFEFFFFFFFBFF0070004088130000CC
:1006F000FFFFFFEF444B5A6B04210A435A635A6BC6
:1007000003390A435A6300F023FC05003E4B5B6B40
:100710009B0706D400F01CFC401B0228F6D90320DE
:100720006EE039494B6BF8229343A269D200134320
:100730004B630BE0344A536B04218B435363536B7D
:10074000F4318B43A169C9000B435363236A002B27
:1007500055D02D4A51680C220A40082A52D0022B4B
:1007600012D0294A136829490B40136000F0F0FBAE
:100770000400254B1B689B013DD500F0E9FB001BE5
:100780000228F6D903203BE01F4A13681F490B409B
:10079000136000F0DDFB05001B4B1B689B0106D5B9
:1007A00000F0D6FB401B0228F6D9032028E0164BA8
:1007B000DA6A0F218A43E16A0A43DA625A68144905
:1007C0000A40A16A606A01430A435A60196880229C
:1007D00052040A431A6000F0BBFB04000A4B1B687A
:1007E0009B0106D400F0B4FB001B0228F6D90320BD
:1007F00006E0002004E0002002E0012000E00020EC
:1008000002B070BD0120FBE700100240FFFFFFFEB9
:10081000FFFFC2FF30B589B004AA154B180032C8DB
:1008200032C2110002680A606A46103313CB13C249
:100830001B6813600F4B5A680C231340082B13D10D
:10084000910C0733194004A8445C0A49C96A0B405B
:100850006946C95CD30302D40748604305E00748F2
:10086000FFF75EFC604300E0044809B030BDC046BD
:10087000982200080010024000093D0000127A0092
:1008800070B505000C004D4B1A68012313408B42D4
:100890000BD24A490B680122934323430B600B6838
:1008A0001A40944201D0012085E02B689B0706D5B1
:1008B000434A5368F0218B43A9680B4353602B686C
:1008C000DB074CD56B68012B21D0022B25D03C4A8D
:1008D0001268920700D46FE039494A6803208243C6
:1008E00013434B6000F034FB06006B68012B1AD0F9
:1008F000022B26D0324B5B680C221A422FD000F01C
:1009000027FB801B2F4B9842F4D9032053E02C4A3D
:1009100012689203E0D401204DE0294A1268920146
:10092000DAD4012047E0264B5A680C231340042BED
:1009300015D000F00DFB801B224B9842F3D9032009
:1009400039E01F4B5A680C231340082B07D000F0E6
:10095000FFFA801B1B4B9842F3D903202BE0174B67
:100960001A68012313409C420BD214490B680122E0
:10097000934323430B600B681A40944201D001203B
:1009800019E02B685B0706D50D4A53680E490B40EA
:10099000E9680B435360FFF73DFF094B5A681209A2
:1009A0000F231340094AD35CD840094B186000203C
:1009B00000F0A4FA002070BD0120FCE700200240F6
:1009C0000010024088130000FFF8FFFFB822000863
:1009D00000000020014B18687047C046000000204E
:1009E00010B5FFF7F7FF044B5A68120A07231340AC
:1009F000024AD35CD84010BD00100240C822000853
:100A0000114B1A6801210A431A605A680F480240C4
:100A10005A601A680E4802401A601A680D4802406F
:100A20001A605A680C4802405A60DA6A0F20824302
:100A3000DA621A6B094802401A635A6B8A435A6396
:100A400000229A607047C046001002400CB8FF08B0
:100A5000FFFFF6FEFFFFFBFFFFFFC0FFECFEFFFF07
:100A6000F0B5C64600B582B000237EE0DF08083747
:100A7000BF003E5807251D40AD000F24AC40A643E3
:100A80000C69AC40250035433D507EE085686446E6
:100A90002540CE68BE403543856045682C004546FC
:100AA000AC434D682E09012535409D402C434460E0
:100AB000C46865462C408D68BD402C43C4604C68BA
:100AC000E40051D5434DAE6901242643AE61AD69C2
:100AD0002C400194019C9C08A51CAD003E4EAE59D3
:100AE00003251D40AD000F27AF40BE439027FF05F3
:100AF000B84265D0394FB84264D0394FB84263D05C
:100B0000384FB8425AD00527AF403D003543023434
:100B1000A400314EA551344C2568D44326002E4004
:100B20004F68FF0301D515432E002F4D2E606D68D1
:100B30002E0026404F68BF0301D515432E002A4DD5
:100B40006E60AD682E0026404F68FF0201D5154348
:100B50002E00254DAE60ED682C404E68B60201D5E2
:100B60002A431400204AD46001330A681400DC4090
:100B70002CD001249C40A0462240F5D04D68022D87
:100B800000D173E7122D00D170E706685F000325DE
:100B90002C00BC40E443A44626404C682540BD40A0
:100BA000354305604D686E1E012E00D86EE7112D8D
:100BB00000D16BE7122D00D07AE767E70327A3E7A0
:100BC0000027A1E701279FE702279DE702B004BCA9
:100BD0009046F0BD001002400000014000040048B3
:100BE00000080048000C004800040140002A01D120
:100BF000816270478161FCE770B504008368026917
:100C0000134342691343C269134301680A685B488E
:100C1000024013430B602268536859490B40E16856
:100C20000B435360A369226A134321688A685548BD
:100C3000024013438B60544B1A6B03231340012B68
:100C400025D0002B05D0022B23D0032B23D010233B
:100C500000E0002380221202E16991421DD0022BA4
:100C600000D16EE05ED9042B00D177E0082B00D0D4
:100C700081E025686168480880231B029C46604427
:100C8000FFF74EFA0004000CE86000202FE0042378
:100C9000E0E70823DEE70223DCE7022B28D00FD9A8
:100CA000042B30D0082B3AD16368580880235B02AC
:100CB0009C4660446168FFF733FA83B200200CE081
:100CC000002B2CD1FFF78CFE400063685B08C01836
:100CD0006168FFF725FA83B200200F2219009143C3
:100CE0000A005B1007210B4013432268D36070BDDC
:100CF00063685808254B9C4660446168FFF710FA0A
:100D000083B20020E9E7FFF785FD400063685B08D8
:100D1000C0186168FFF704FA83B20020DDE7012004
:100D20000023DAE7002B26D12568FFF759FE61681A
:100D30004B08C018FFF7F4F90004000CE86000202D
:100D4000D5E7256861684808114B9C466044FFF769
:100D5000E7F90004000CE8600020C8E72568FFF709
:100D600059FD61684B08C018FFF7DAF90004000C60
:100D7000E8600020BBE70120B9E7C046F369FFFF48
:100D8000FFCFFFFFFFF4FFFF001002400024F4003C
:100D900000127A00436ADB0706D5026853682C49C3
:100DA0000B40816A0B435360436A9B0706D5026878
:100DB000536828490B40C16A0B435360436A5B0781
:100DC00006D50268536824490B40016B0B435360FE
:100DD000436A1B0706D50268536820490B40416BE4
:100DE0000B435360436ADB0606D5026893681C49CF
:100DF0000B40816B0B439360436A9B0606D50268E8
:100E0000936818490B40C16B0B439360436A5B06C0
:100E10000BD50268536814490B40016C0B435360B7
:100E200080235B03026C9A420AD0436A1B0606D5F4
:100E3000026853680D490B40816C0B435360704747
:100E4000026853680A490B40416C0B435360ECE75E
:100E5000FFFFFDFFFFFFFEFFFFFFFBFFFF7FFFFF29
:100E6000FFEFFFFFFFDFFFFFFFFFEFFFFFFFF7FFDA
:100E7000FFFF9FFF0023C3662022692142540131F6
:100E800042544832835400207047000010B5041EBD
:100E900030D06923C35C002B22D024226923E25482
:100EA0002268136801218B4313602000FFF7A4FE22
:100EB000012814D0636A002B18D1226853680E49A8
:100EC0000B4053602268936808210B4393602268AB
:100ED000136807390B4313602000FFF7CBFF10BDE9
:100EE00000226833C25400F0EFF9D6E72000FFF784
:100EF00051FFE2E70120F2E7FFF7FFFF10B5040022
:100F0000FFF768FDFA218900FFF70AF9FFF72AFACF
:100F10000022210001204042FFF7F2F9002010BD1D
:100F200010B5064A136810210B4313600020FFF729
:100F3000E5FF00F0CFF8002010BDC04600200240C1
:100F4000024A1368013313607047C0462000002036
:100F5000014B18687047C04620000020F0B54123BF
:100F6000C35C202B01D00220F0BD2033C35C012BD9
:100F70001CD04024012202554125242343550668F4
:100F800033689343336006683368094F3B403360EE
:100F9000066833681943316001680B6813430B60BE
:100FA00020234355002303550020DDE70220DBE723
:100FB000FFEFFFFFF0B54123C35C202B01D00220DF
:100FC000F0BD2033C35C012B1AD04024012202550E
:100FD00041252423435506683368934333600668EC
:100FE0003368084F3B4009021943316001680B68C0
:100FF00013430B6020234355002303550020DFE7F4
:101000000220DDE7FFF0FFFF10B5041E59D0412399
:10101000C35C002B43D024224123E254226813688E
:1010200001218B4313602268274B61680B401361D9
:101030002268936825490B409360E368012B34D004
:10104000226884231B02A1680B439360E368022B90
:1010500032D0226851681E4B0B4353602268D3681C
:101060001A490B40D3602168236962691343A2695E
:1010700012021343CB602268E369216A0B431360B9
:101080002268136801210B431360002363641F313E
:101090004122A15423630132A354002010BD002239
:1010A0004033C25400F05AF8B5E7226880231B028F
:1010B000A1680B439360C9E72368802212015A603C
:1010C000C7E70120EAE7C046FFFFFFF0FF7FFFFF11
:1010D0000080000200B583B00E4A916901231943D4
:1010E0009161926913400193019B00220021052028
:1010F0004042FFF705F90022002102204042FFF79D
:10110000FFF80022002101204042FFF7F9F803B068
:1011100000BDC0460010024000B587B002680D4B0C
:101120009A4201D007B000BD0B4A9169802080002F
:1011300001439161936903400093009B3F23019316
:101140003C3B02930023039301A99020C005FFF7C5
:1011500087FCE7E7002401400010024000B587B09B
:101160000268104B9A4201D007B000BDC023DB00DB
:10117000019312230293113B03930233049301332F
:10118000059301A99020C005FFF76AFC064AD169C2
:10119000802080030143D161D36903400093009B09
:1011A000E2E7C04600540040001002400268054BD0
:1011B0009A4200D07047044A116A80231B020B43F5
:1011C0001362F7E7002800400010024082B0026876
:1011D000074B9A4201D002B07047064A91698020BD
:1011E000000101439161936903400193019BF2E780
:1011F000002C01400010024082B003680E4A934266
:1012000004D00E4A93420CD002B070470C4AD16908
:10121000802040000143D161D36903400093009BCB
:10122000F2E7074A91698020800201439161936946
:1012300003400193019BE7E7002000400044014088
:101240000010024000B587B003681C4A934207D0E3
:101250001B4A934213D01B4A93421FD007B000BDD4
:1012600080231B0101930223029300220392049224
:10127000059301A99020C005FFF7F2FBEEE780235C
:1012800001937E3B0293002303930493043305935D
:1012900001A99020C005FFF7E3FBDFE7402301939E
:1012A0003E3B02930023039304930533059301A966
:1012B0009020C005FFF7D4FBD0E7C046002C0140CA
:1012C000002000400044014000B587B002680E4B8A
:1012D0009A4201D007B000BD0C4A91698020C0013C
:1012E00001439161936903400093009B4023019364
:1012F0002E3B02930023039303220492059301A93A
:101300000348FFF7ADFBE5E700380140001002405D
:101310000004004882B00268074B9A4201D002B034
:101320007047064AD169802000010143D161D36929
:1013300003400193019BF2E7002C004000100240A3
:1013400070B582B004000368DB0335D53C4BDB6924
:10135000DB0048D43A4AD169802040050143D1617D
:10136000D36903400193019B0125364B1B68DB05C4
:101370003BD5334B1B6AC0229200134013D06168E7
:101380000A4093420FD02E4B186A2F4A02401E6A21
:101390008021490231431962196A2C4E3140196289
:1013A0001A62C30735D4264A136A27490B4061687D
:1013B0000B431362012D3BD02368DB0706D5204A7F
:1013C000136B03218B43A1680B43136323689B06B4
:1013D00033D51B4A136B10218B43E1680B43136316
:1013E000002002B070BD0025BFE7164A11688023B7
:1013F0005B000B431360FFF7ABFD0600114B1B684E
:10140000DB05B6D4FFF7A4FD801B6428F6D90320C2
:10141000E7E7FFF79DFD0600094B1B6A9B07C2D457
:10142000FFF796FD801B0A4B9842F5D90320D8E7B9
:10143000D36908490B40D361BEE70020D1E7C0461D
:101440000010024000700040FFFCFFFFFFFFFEFFA6
:1014500088130000FFFFFFEF70B504000268D36837
:10146000A0218B43D360FFF773FD05002368DB6881
:101470009B0608D4FFF76CFD401BFA239B009842A3
:10148000F4D9032000E0002070BD70B504000368AB
:10149000DA68520601D5002070BD01225242DA609E
:1014A000FFF756FD05002368DB685B0608D4FFF7ED
:1014B0004FFD401BFA239B009842F4D90320EBE731
:1014C0000020E9E770B5041E57D0437F002B3DD0C4
:1014D000022363772368CA225A622368773A5A62E2
:1014E0002000FFF7D2FF051E34D1226893682449FB
:1014F0000B40936021688A686368206903436069D0
:10150000034313438B602368E2681A6121680B6907
:10151000A268120413430B612268D36880218B43B5
:10152000D36023689B689B061BD52268136C154902
:101530000B4013642268136CA1690B431364236886
:10154000FF225A6201236377280070BD0377FFF7FB
:101550002DFEBDE72368FF225A620423637701252D
:10156000F2E72000FFF778FF0028DED02368FF2293
:101570005A62042363770125E6E70125E4E7C046C4
:10158000BFFF8FFFFFFFFBFF7047FEE7704770470D
:1015900010B5FFF7D5FCFEF712FF10BD70B5041EA5
:1015A00000D1B9E0436C002B00D180E0636CDB0616
:1015B00000D5ABE02268936804210B4000D0A5E081
:1015C000616C564801400630FF3001436164906809
:1015D00003210140012970D0002100290CD1D168DC
:1015E00018208143A0680143D16021680A699200F4
:1015F0009208606802430A612168CA68484802404C
:10160000CA60A2699203E169C9030A43206A4103DF
:101610000A43616B01295CD0802149010A43E168DA
:101620000A432169022956D01343226B5200134307
:10163000626A012A51D0A26AC221FF318A4202D0D5
:10164000E16A0A4313432168CA681A43CA60A26B5D
:10165000802149058A420DD0012A0BD0022A09D0E7
:10166000032A07D0042A05D0052A03D0062A01D070
:10167000072A0AD120684169072291434161206805
:101680004169A56B2A400A4342612268D268254914
:101690000A40934230D0636C12229343023A1343C0
:1016A0006364A36C0F3A1343A364012033E08364A3
:1016B00040228354FFF730FD78E71168C90704D44E
:1016C000D168090403D4002187E7012185E70121BE
:1016D00083E71900A2E70423A6E7002803D18022AC
:1016E00052021343A7E7626C20210A436264A26C92
:1016F0001F390A43A2649EE70023A364636C03229C
:101700009343023A13436364002004E0636C1022A5
:1017100013436364012070BD0120FCE7FDFEFFFF61
:101720001902FEFFE7FF3F8330B583B004000023BA
:1017300001934033C35C012B00D181E0012240239F
:10174000C25403689A68520770D43E4A486890426F
:1017500053D09A6A01200D68A84002439A62A36B95
:101760008022520593421ED0012B1CD0022B1AD08E
:10177000032B18D0042B16D0052B14D0062B12D017
:10178000072B10D0226850690723034088689842CD
:1017900009D05069072398435061206842698D68D9
:1017A0002B40134343610B681A00103A012A01D9F8
:1017B000002040E0244A1268102B09D08023DB036C
:1017C0001343214A13600B68102B04D0002032E031
:1017D00080231B04F4E71D4B18681D49FEF7A0FC8D
:1017E000830018184300019302E0019B013B019321
:1017F000019B002BF9D100201DE09A6A01200D68A1
:10180000A84082439A620B681A00103A012A01D953
:10181000002010E00C4A1268102B05D00D4B13402D
:10182000094A1360002006E00B4BF8E7436C2022C6
:1018300013434364012000224023E25403B030BD2F
:101840000220FBE7011000000827014000000020F3
:1018500040420F00FFFFBFFFFFFF7FFF10B5041ED8
:101860000FD0FFF757FD22688023E1680B43136018
:101870002268236961680B43A1680B435360002011
:1018800010BD0120FCE70000F0B589B01B4B596981
:1018900080208002014359615A6902400192019AF5
:1018A0005A698021C9020A435A615B690B4002935D
:1018B000029B134F0022BB213800FFF797F99125B7
:1018C0002D02002229009020C005FFF78FF9BB23CD
:1018D00003930126049600240594069403A9380076
:1018E000FFF7BEF8039504960594069403A990208B
:1018F000C005FFF7B5F809B0F0BDC04600100240C2
:1019000000040048FEE7000000B585B04648474B9C
:101910000360002343608360C360012202610421ED
:1019200041618361C36103624362C221FF3181620D
:10193000C36203634263FFF731FE002847D10023EF
:10194000019380235B01029380235B05039301A92C
:101950003548FFF7E9FE00283DD10123019301A995
:101960003148FFF7E1FE00283AD10223019301A993
:101970002D48FFF7D9FE002837D10323019301A991
:101980002948FFF7D1FE002834D10423019301A98F
:101990002548FFF7C9FE002831D10523019301A98D
:1019A0002148FFF7C1FE00282ED11023019301A981
:1019B0001D48FFF7B9FE00282BD11123019301A97F
:1019C0001948FFF7B1FE002828D105B000BDFB2162
:1019D0001748FFF797FF0621FF311548FFF792FFE1
:1019E0000E21FF311248FFF78DFF1621FF311048FD
:1019F000FFF788FF1E21FF310D48FFF783FF2621E7
:101A0000FF310B48FFF77EFF2E21FF310848FFF71B
:101A100079FF3621FF310648FFF774FF3E21FF3181
:101A20000348FFF76FFFC0469401002000240140E7
:101A3000D022000810B51748174B0360174B4360BE
:101A4000002383600122C260036143618361C3613B
:101A50000362FFF7D9FA00280CD100210D48FFF7E7
:101A60007DFA00280BD100210A48FFF7A3FA0028CD
:101A70000AD110BD5221FF310948FFF743FFAC21C5
:101A800049000748FFF73EFF6021FF310448FFF798
:101A900039FFC04624000020005400400E090020F9
:101AA000D022000810B50B480B4B036000234360A5
:101AB0007F2282608032C260036143618361FFF7ED
:101AC00001FD002800D110BD7421FF310348FFF74C
:101AD00019FFC046E000002000280040D022000886
:101AE00000B591B02848294B0360012343600023CF
:101AF0008360FF22C26003614361836100F0A2FA48
:101B000000282CD100230E930F930EA91E48FEF738
:101B100093FB002828D1602307930023089309939F
:101B20000B930C930D930C2207A9174800F0E4FACD
:101B300000281ED100230093019302930393049382
:101B4000802292010592069369460F48FEF79AFBA0
:101B5000002813D10C48FFF775FB11B000BD8A2196
:101B6000FF310B48FFF7CEFEC82149000848FFF7B8
:101B7000C9FE9C21FF310648FFF7C4FEA821FF31B2
:101B80000348FFF7BFFEC04600010020002C0140C3
:101B9000D022000800B589B019481A4B0360002311
:101BA00043608360C3600361836100F031FA002801
:101BB00016D1134800F046FA002816D1602301938D
:101BC0000023029303930593002201A90C4800F01F
:101BD00093FA00280ED10A48FFF734FB09B000BD84
:101BE000DE2149000848FFF78DFEC221FF3106487B
:101BF000FFF788FEE52149000348FFF783FEC04652
:101C00005401002000200040D022000800B58FB011
:101C10002548264B0360002343608360C360036153
:101C20004361836100F0F4F9002829D11E4800F0D7
:101C300009FA002829D16023079300230893099308
:101C40000A930B930C930D93002207A9164800F0FA
:101C500053FA00281ED100230093019302930393AB
:101C60000493802292010592069369460E48FEF77E
:101C700009FB002813D10C48FFF7E4FA0FB000BDB0
:101C8000E221FF310A48FFF73DFEF32149000848F1
:101C9000FFF738FEF92149000548FFF733FEFF2121
:101CA00049000348FFF72EFEE001002000440140F8
:101CB000D022000810B50C480C4B0360E1235B02F6
:101CC000436000238360C36003610C22426183612F
:101CD000C36103624362FFF7D9F8002800D110BD49
:101CE00003490448FFF70EFE700000200038014051
:101CF00015020000D022000810B50B480B4B036002
:101D0000C0235B004360413BFF3B83603F33C360C4
:101D100000230361FFF7A2FD002800D110BD044994
:101D20000448FFF7EFFDC04640010020002C0040B2
:101D300025020000D022000800B595B01A230893B0
:101D4000193B0B930D9310220C920E920F930133BB
:101D5000109300231193A02292031292139308A8C8
:101D6000FEF732FB00282CD107230493053B059393
:101D7000002306930793012104A8FEF781FD0028A4
:101D800023D1164B009300230293039380239B00DF
:101D900001936846FFF7D4FA00281AD1FEF71AFE1D
:101DA000FA218900FEF7BCF9FEF7DCFA0420FEF701
:101DB000F5FA0022002101204042FEF7A1FA15B0F9
:101DC00000BDBD210648FFF79DFDCA210448FFF76D
:101DD00099FDD4210248FFF795FDC046210001007E
:101DE000D022000810B5FFF79BF8FFF7A5FFFFF71B
:101DF0004BFDFFF789FDFFF71DFEFFF753FEFFF7D1
:101E00006FFEFFF7C7FEFFF701FFFFF753FFFFF776
:101E100073FFFEE730B5036A012293430362036A4E
:101E2000446882697325AA430D682A430225AB439F
:101E30008D682B43124DA84214D0124DA84211D0E8
:101E4000114DA8420ED00E4DA84212D00D4DA84201
:101E50000FD00D4DA8420CD0446082614A684263A5
:101E6000036230BD0825AB43CD682B430425AB434B
:101E7000E9E7064D2C404D692C438D692C43EBE777
:101E8000002C01400044014000480140FFFCFFFFDE
:101E900030B5036A194A13400362036A4568C4698E
:101EA0007532FF3294430A681443154A13408A6816
:101EB00012021343134A90420ED0124A904213D09A
:101EC000114A904210D0114A90420DD04560C46131
:101ED0004A68C263036230BD0D4A1340CA681202E9
:101EE00013430C4A1340E8E70B4A15404A691201B4
:101EF00015438A6912011543E8E7C046FFFEFFFF5C
:101F0000FFFDFFFF002C014000440140004801405C
:101F1000FFF7FFFFFFFBFFFFFFCFFFFF30B5036AB7
:101F2000124A13400362036A4568C269104C22409A
:101F30000C68240222430F4C23408C682403234363
:101F40000D4CA0420BD00D4CA04208D00C4CA0422E
:101F500005D04560C2614A680264036230BD094C25
:101F60002C404D69AD012543F3E7C046FFEFFFFF6D
:101F7000FF8CFFFFFFDFFFFF002C0140004401400A
:101F800000480140FFBFFFFF03681B4A90422AD070
:101F90001A4A904227D0184A90420BD0174A9042D2
:101FA00008D0174A904205D0164A904202D0164AED
:101FB000904203D1154A1340CA68134380229343C9
:101FC0004A69134303608B68C3620B6883620A4BE0
:101FD00098420DD00B4B98420AD00B4B984207D039
:101FE000012343617047702293434A681343D2E749
:101FF0000B690363F4E7C046002C01400004004075
:10200000002000400044014000480140FFFCFFFF69
:1020100070B5041E14D03D23C35C002B0AD03D25AF
:1020200002236355211D2068FFF7AEFF012363558E
:10203000002070BD00223C33C254FFF7DDF8EEE70C
:102040000120F6E770B5041E14D03D23C35C002BBD
:102050000AD03D2502236355211D2068FFF794FF18
:1020600001236355002070BD00223C33C254FFF7AA
:10207000ADF8EEE70120F6E730B5036A102293438E
:102080000362036A45688469164A14400A681202AA
:102090001443202293438A6812011343124A904248
:1020A0000ED0114A904213D0104A904210D0104ADC
:1020B00090420DD0456084614A688263036230BDFE
:1020C00080229343CA681201134340229343E8E7F6
:1020D000084A15404A69920015438A6992001543DF
:1020E000E8E7C046FF8CFFFF002C014000440140A0
:1020F00000480140FFF3FFFF70B504000D003C23D2
:10210000C35C012B69D001213C23C154013101334F
:10211000C154042A37D019D9082A4AD00C2A2AD106
:1021200029000068FFF7FAFE2268D16980231B01AD
:102130000B43D3612268D36929490B40D3612168DD
:10214000CB692A6912021343CB6114E0002A12D131
:1021500029000068FFF75EFE2268936908210B439F
:1021600093612268936904398B4393612268936970
:1021700029690B43936101223D23E2540022013B74
:10218000E254002070BD29000068FFF775FF226847
:10219000916980231B010B43936122689369104965
:1021A0000B40936121688B692A69120213438B618A
:1021B000E1E729000068FFF76BFE2268D369082178
:1021C0000B43D3612268D36904398B43D3612268FE
:1021D000D36929690B43D361CDE70220D2E7C0461A
:1021E000FFFBFFFF0D4885460D480E490E4A0023B0
:1021F00002E0D458C4500433C4188C42F9D30B4ABB
:102200000B4C002301E013600432A242FBD3FEF723
:10221000F7FB00F011F8FFF7E5FDFEE700100020E6
:102220000000002004000020E42200080400002038
:1022300020020020FEE7000070B500260C4D0D4C7A
:10224000641BA410A64209D1002600F019F80A4D1B
:102250000A4C641BA410A64205D170BDB300EB5814
:1022600098470136EEE7B300EB5898470136F2E79E
:10227000DC220008DC220008DC220008E022000842
:10228000F8B5C046F8BC08BC9E467047F8B5C046D5
:08229000F8BC08BC9E46704733
:1022980002030405060708090A0B0C0D0E0F10109F
:1022A8000102030405060708090A0B0C0D0E0F109E
:1022B80000000000000000000102030406070809EE
:1022C80000000000010203045372632F6D61696E00
:0422D8002E63000071
:0422DC00E90000080D
:0422E000C100000831
:0422E40000127A006A
:04000005080021E5E9
:00000001FF
