:020000040800F2
:1000000000200020BD470008CB2C0008CD2C0008A4
:1000100000000000000000000000000000000000E0
:10002000000000000000000000000000CF2C0008CD
:100030000000000000000000D12C0008D32C0008B4
:100040000D4800080D4800080D4800080D4800083C
:100050000D4800080D4800080D4800080D4800082C
:100060000D480008E12C00080D4800080D48000864
:100070000D4800080D4800080D4800080D4800080C
:100080000D4800080D480008000000000D48000859
:100090000D480008F12C00080D4800080D48000824
:1000A0000D4800080D4800080D4800080D480008DC
:1000B0000D480008000000000D4800080000000086
:1000C00010B5064C2378002B07D1054B002B02D02E
:1000D000044800E000BF0123237010BDD4010020BC
:1000E00000000000A0700008084B10B5002B03D0E2
:1000F0000749084800E000BF07480368002B00D10B
:1001000010BD064B002BFBD09847F9E7000000001C
:10011000D8010020A0700008D401002000000000D9
:100120000023C25C0133002AFBD1581E7047000037
:1001300002B4714649084900095C49008E4402BC7A
:100140007047C046002243088B4274D303098B4298
:100150005FD3030A8B4244D3030B8B4228D3030C97
:100160008B420DD3FF22090212BA030C8B4202D339
:100170001212090265D0030B8B4219D300E0090A61
:10018000C30B8B4201D3CB03C01A5241830B8B426A
:1001900001D38B03C01A5241430B8B4201D34B0353
:1001A000C01A5241030B8B4201D30B03C01A5241B8
:1001B000C30A8B4201D3CB02C01A5241830A8B423D
:1001C00001D38B02C01A5241430A8B4201D34B0226
:1001D000C01A5241030A8B4201D30B02C01A52418A
:1001E000CDD2C3098B4201D3CB01C01A524183093E
:1001F0008B4201D38B01C01A524143098B4201D378
:100200004B01C01A524103098B4201D30B01C01AA2
:100210005241C3088B4201D3CB00C01A524183081C
:100220008B4201D38B00C01A524143088B4201D349
:100230004B00C01A5241411A00D2014652411046A9
:100240007047FFE701B5002000F0F0F802BDC0469E
:100250000029F7D076E7704703460B437FD400228E
:1002600043088B4274D303098B425FD3030A8B424A
:1002700044D3030B8B4228D3030C8B420DD3FF22B4
:10028000090212BA030C8B4202D31212090265D082
:10029000030B8B4219D300E0090AC30B8B4201D335
:1002A000CB03C01A5241830B8B4201D38B03C01A7C
:1002B0005241430B8B4201D34B03C01A5241030BF3
:1002C0008B4201D30B03C01A5241C30A8B4201D3A4
:1002D000CB02C01A5241830A8B4201D38B02C01A4F
:1002E0005241430A8B4201D34B02C01A5241030AC6
:1002F0008B4201D30B02C01A5241CDD2C3098B42AB
:1003000001D3CB01C01A524183098B4201D38B0127
:10031000C01A524143098B4201D34B01C01A5241CA
:1003200003098B4201D30B01C01A5241C3088B420F
:1003300001D3CB00C01A524183088B4201D38B00FA
:10034000C01A524143088B4201D34B00C01A52419C
:10035000411A00D201465241104670475DE0CA0F73
:1003600000D04942031000D34042534000229C4633
:1003700003098B422DD3030A8B4212D3FC2289013D
:1003800012BA030A8B420CD3890192118B4208D313
:10039000890192118B4204D389013AD0921100E075
:1003A0008909C3098B4201D3CB01C01A5241830989
:1003B0008B4201D38B01C01A524143098B4201D3B6
:1003C0004B01C01A524103098B4201D30B01C01AE1
:1003D0005241C3088B4201D3CB00C01A524183085B
:1003E0008B4201D38B00C01A5241D9D243088B42B1
:1003F00001D34B00C01A5241411A00D20146634654
:1004000052415B10104601D34042002B00D54942B7
:10041000704763465B1000D3404201B5002000F0F6
:1004200005F802BD0029F8D016E770477047C046AE
:100430008446101C62468C46191C634600E0C04688
:100440001FB500F015FF002801D40021C8421FBDD0
:1004500010B500F06FFE4042013010BD10B500F045
:1004600007FF002801DB002010BD012010BDC046A1
:1004700010B500F0FDFE002801DD002010BD0120B8
:1004800010BDC04610B500F08FFE002801DC002032
:1004900010BD012010BDC04610B500F085FE00283B
:1004A00001DA002010BD012010BDC046F8B5454658
:1004B000DE4657464E460C03E0B54E00C90F88464F
:1004C0000D00610A440F0C43C70019035800DB0FED
:1004D0009B464B0A510F0B43760D400D1900D2007D
:1004E000D84500D1AEE0351A002D00DCF6E000283A
:1004F0000FD1134300D1DBE06B1E002B00D037E19E
:10050000BA1A9742BF41641A7F42E41B01261700C2
:1005100024E0C64B9E424DD080231B041943382D46
:1005200000DD07E11F2D00DD38E12020431B9A4646
:100530000B0050468340994613004846EB40184351
:10054000030050468240501E8241E9401A43BA1AC5
:10055000611A9742A441170064420C1B230262D522
:100560006402650A002D00D1DFE0280001F046FD9D
:100570000300083B1F2B00DDD2E020223C00D21AF2
:100580009D40D4409F4025439E4200DDC4E09E1B19
:10059000731C1F2B00DDF1E0202238002900D21A45
:1005A000D840914097402C000143781E8741DC40A1
:1005B00000260F437B0709D00F233B40042B05D0B7
:1005C0003B1DBB42BF417F42E4191F0023022CD5D3
:1005D000964B01369E4200D19AE04546944BFF0867
:1005E0001C406007760564020743240B760D00214A
:1005F0002403230B0C0D8F4A24051C4314403305A0
:1006000023435B00ED075B082B43380019003CBC1B
:1006100090469946A246AB46F8BD6446044300D1D5
:1006200011E2040067467B07C6D145466007FF0814
:100630000743E4087D4B9E4230D024037605240B0B
:10064000760DD4E7331A9A46002B78DD002831D096
:1006500076488642AED08020000401435346382BB2
:1006600000DCE9E00A43511E8A410021D219BA4256
:10067000BF4109197C4217000C192302D3D56B4BDB
:1006800001369E4200D13AE10120694B1C407B08B3
:1006900007401F43E007074364088BE723003B4301
:1006A00000D1CBE18022120314432403240B9EE7E4
:1006B0002E007FE70800104300D1B4E0581E002848
:1006C00000D0DEE0BA18BA429B4164185B42E418DD
:1006D000170001262302A6D50226D5E7002D6ED1EC
:1006E000701C4005400D012800DCF9E0B81A844672
:1006F00087428041E51A40422D1A280200D489E041
:10070000D71BBA4292411C1B5242A51AD84629E770
:100710004546002400276AE7454CF61A2C4049E775
:100720003D002838854000272EE7380001F066FCA0
:1007300020301DE70A43511E8A41002107E7002BA4
:1007400000D0F3E0701C43055B0D012B00DCADE035
:10075000364B984200D1D1E0BA18BA42BF41641872
:100760007F42E419E707520817436408060021E7AF
:100770002E48854200D193E01D00D0E629001F3E9F
:10078000F140202B00D18DE04022D31A9D402F4311
:100790007D1EAF4100240F43002644E72B000800D4
:1007A000203BD8400300202D00D17DE04020451B98
:1007B000A9400A43511E8A4100211A43C7E6002E70
:1007C00050D01A4EB04257D080266B42994636041C
:1007D00034434B46382B00DDD6E01F2B00DD35E1DE
:1007E0002026F51A2600AE40B2463E00DE40AC465A
:1007F000350056462E436546AF407D1EAF41DC4076
:100800003743D71BBA4292410C1B5242A41A06002E
:10081000D846A3E6644667462C4300D0A2E60025EE
:100820000026002706E71E00C4E6C046FF070000BA
:10083000FFFF7FFFFFFF0F801F2B63DC2020C31A09
:10084000080098409C46834653461000D840030059
:100850005846184363469A40531E9A4153460243F2
:10086000D94003E726003E4306D0EB439946002BD0
:10087000C7D0944EB042ACD10C0017000600D84649
:1008800098E6904B9A450BD08246E7E6002800D0C8
:100890009EE01800104300D1E9E01C001700D84684
:1008A000884E87E6002572E7002182E723003B435C
:1008B000002E00D0ABE0002B00D1E7E00B0013438B
:1008C00000D177E6BA18BA42BF4164187F42E419F2
:1008D000230200D4F2E07C4B17001C40060069E6BE
:1008E00020003843002ED1D100285BD11C001443D6
:1008F00000D1A8E01C001700D8465BE606000024E3
:10090000002797E650460B002038C34099465346CF
:10091000202B00D195E0402350461B1A99400A43F2
:10092000511E8A414B4600211A439FE6002E30D1CA
:1009300026003E4367D0DB439A46002B1CD0614E15
:10094000B04260D05346382B00DD96E01F2B00DD0F
:100950009FE02026F31A26009E409C46B34653464D
:100960003E00DE4033005E461E4363469F407B1ED2
:100970009F415346DC403743BF1897429241641869
:100980005242A418060078E627437C1EA7410024A3
:1009900037E74C4EB04236D080265B4236049A464A
:1009A0003443CFE71800104300D103E6B81A844659
:1009B0006745AD41E01A6D42401B050200D42CE6AC
:1009C000D71BBA4292411C1B5242A41AD846F1E5E9
:1009D0001800104300D163E7F80867070743802039
:1009E000E4080003044208D0DD08054205D1D2081E
:1009F000590711430F002C00D8467B0FE4001C431D
:100A0000FF00304ED6E50C0017000600D2E5002BA3
:100A100038D00B00134300D142E7F80867070743BB
:100A20008020E40800030442E7D0CB080342E4D16D
:100A3000D208490711430F001C00DEE700270024FD
:100A4000D5E500216BE700250027F3E54E4625009C
:100A5000203EF5404B462E00202B2DD04025ED1A90
:100A6000AC4027437C1EA74100243743C9E68024BD
:100A700000252403134E0027DCE527437C1EA741F5
:100A8000002479E70C0017000E4E93E50C001700C8
:100A900090E556462300203EF34099465346202BCE
:100AA0000ED0402356469B1B9C4027437C1EA741EB
:100AB0004B4600241F435FE70024D2E71700B2E54E
:100AC0000024F2E7FF070000FFFF7FFFF0B5574665
:100AD0004546DE464E46E0B54C000E0387B08346E1
:100AE00092461D008046360B640DCF0F002C4FD070
:100AF0006F4B9C4235D08023420F1B04F6001343FA
:100B000033439946C30098466A4B00269C4600230F
:100B1000644403932B031B0B9B466B00ED0F504665
:100B20005B0D01955ED0624A934253D05A46D10084
:100B30008022400F120402430A4393465246D100DA
:100B40005C4A944600226344380068408446029020
:100B5000E41A16430F2E00D9B4E0574BB6009B5948
:100B60009F460300334399466CD1002398460233D5
:100B700008260393CEE7CB464146039A0197022A03
:100B800065D1019B4A4C9C460023002298466BE0AD
:100B90000300334399464ED0002E00D1BCE1300013
:100BA00001F02CFA03000B3B1C2B00DDACE11D22F5
:100BB000D31A5A460100DA4008398E4013003343F5
:100BC00099465B468B40984600233C4C0026241AED
:100BD00003939FE751465A46114329D10022934679
:100BE0000232B1E7594601431ED05B46002B00D1CB
:100BF0009EE1584601F002FA03000B3B1C2B00DD7E
:100C00008FE102005946083A91408B461D21CB1ACC
:100C10005146D9400B0059460B4351469B469140E3
:100C2000264B00221B1A8FE7002301229B468BE7ED
:100C30005146032288E70023984601330426002406
:100C4000039367E70323B14603930C2662E7032A65
:100C500000D15CE2019B012A00D0E4E113409C46F4
:100C6000002300240022984600211203130B0A0DD2
:100C700012051A432305124C404622401343624694
:100C80005B00D2075B081343190007B03CBC9046D9
:100C90009946A246AB46F0BD002380229C46120333
:100CA0009846034CE0E70023014C00229846DBE71E
:100CB000FF07000001FCFFFFD87000080DFCFFFFDC
:100CC000FFFF0F80D94500D939E100D134E100237D
:100CD00046464D469A46013C5B460A0E1B021A43A5
:100CE0000B02170C039313041B0C390028009046C9
:100CF0000193FFF727FA0200019B83465A4328001D
:100D000039009146FFF7A4FA350C09040D43A945B3
:100D10000DD95B464544013BA84500D93AE1A945B8
:100D200000D837E102235B429C464544E3444B46EE
:100D3000EB1A390018000493FFF704FA019B050031
:100D40004343390004989946FFF782FA33040904B3
:100D50001B0C0B43994509D943446A1E984500D999
:100D60001AE1994500D817E1023D43444A469B1ACF
:100D70005A4612042A4303999346100C0A0C9146D2
:100D800009045A46090C4E460D001204120C454344
:100D9000059151437243704352190E0CB21895429B
:100DA00003D980256D02AC466044150C0904120479
:100DB000090C28185218834200D2CEE000D1C8E0B6
:100DC0001D1A53469E1AB24592415242AB1A9A4698
:100DD000984500D117E139001800FFF7B3F9019BDE
:100DE00005004343390050460493FFF731FA049855
:100DF0000B04310C1943884209D941446B1E8845C4
:100E000000D907E1884200D804E1023D4144049B37
:100E1000CB1A180039000493FFF794F9019B82461E
:100E20004343390004980193FFF712FA01980B0429
:100E30003104090C194388420DD953464144013B02
:100E4000884500D9E8E0884200D8E5E002235B420B
:100E50009C464144E244019B2D04CE1A514629434D
:100E6000059D4F462A000B04080C1B0C5A434543B2
:100E70007B4378435B19170CFB189D4203D98025EF
:100E80006D02AC4660441D0C12041B04120C2818A1
:100E90009B18864200D293E000D18EE001231943D3
:100EA000A04BE318002B00DC99E04A0700D09EE03D
:100EB0005A46D20106D55A469B4B1A408023934688
:100EC000DB00E318994A934268DD0123029A984CAB
:100ED0001A400023944698460022C5E680224B46DD
:100EE000120313420AD05B46134206D11A4312037F
:100EF000120BAC4688468E4CB6E64B461A4312039C
:100F0000120BBC468A4CAFE603005A46283B9A4077
:100F100000239146984657E6584601F06FF8203076
:100F200040E603005246283B9A400021934677E66C
:100F300001F064F820305FE6884500D2C7E64B46F2
:100F4000DE075D0843465B081E434346DB079A46BF
:100F5000C2E60025924500D333E7039E5946B446C6
:100F6000E244B245AD416D424544EB180139984524
:100F700007D2984200D97FE000D1BCE01D1A8B4611
:100F80001FE79845FAD1039D5545F2D943468B4654
:100F90001D1A16E79B46CAE61500E7E65A46C90839
:100FA00052070A435B0590465C0D5A46012302999D
:100FB00052021940120B8C4656E6002B00D16FE707
:100FC00046444A1EB04529D91100864200D065E743
:100FD000039A934200D061E762E701214942012070
:100FE000C21A382A21DD029B03409C4638E60F22B4
:100FF0000A40042A00D15BE70A00111D9142924188
:101000005242934454E7474BE318002BE5DD01229D
:101010005242F2E71D00FAE69A461CE7B04239D880
:101020006ED011003AE702933AE71F2A3CDC2023F6
:101030009B1A0C005846994098404B1E99415B46BC
:10104000D440D340204308431A00430709D00F235C
:101050000340042B05D00100081D88429B415B42E0
:10106000D21813023AD50123029A01241A40002310
:10107000944698460022F7E5022149428C46039D9A
:10108000E344AC46E244AA45AD416D424544ED1807
:101090002D1A96E68A1E03994D008D4289414942D8
:1010A0004144761803958FE71F204042C31A5846E3
:1010B000D8400300202A28D040205D46821A95405F
:1010C00029434A1E91411943072300220B4009D0AE
:1010D0000F2300220B400800042BBDD10100530751
:1010E0005202120BC90819430123884602990024B1
:1010F00019408C46B8E55245BED88B46002560E6BF
:10110000039D9D42C6D3110062E70025D8E78022E7
:101110005B4612031A43019B1203120B9C4688463E
:10112000034CA1E5FF030000FFFFFFFEFE070000E8
:10113000FF070000F0B54F464646D6465C00C0B5F6
:101140001F03DB0F9A46174B0E034D008446804663
:10115000360B6D0DC90F91463F0B640D01209D426A
:1011600008D09C4201D0A5420BD01CBC90469946A9
:10117000A246F0BD63463343F7D1AC42F5D13A43C2
:10118000F3D10120BE42F0D1C845EED1514507D080
:10119000002DEAD163461E433000461EB041E4E70D
:1011A0000020E2E7FF070000F0B54546DE4657465F
:1011B0004E46E0B51F033D0B2C4F0E034C00AB46D3
:1011C0005D008446360B640DC90F90466D0DDB0F34
:1011D000BC422AD0254FBD422DD0002C0FD1304328
:1011E0000700814678427841C0B2002D17D15F4692
:1011F0003A4314D14B460020002B0AD006E0002DC4
:1012000002D15846024301D0994218D048420121E8
:1012100008433CBC90469946A246AB46F0BD002828
:10122000F2D00120013B1843F3E737000743D1D048
:1012300002204042EDE75F461743CED0F8E7AC42CC
:10124000E4DC03DA481E01210843E2E75E45DDD80D
:1012500006D000205E45DCD20123481E1843D8E7A3
:10126000C445D3D80020C445F6D3D2E7FF07000019
:10127000F0B54E464546DE4657465C00E0B51F03D6
:10128000DB0F99462A4B0E034D00C90F8446360BDF
:101290006D0D8B4690463F0B640D9D4220D0244B34
:1012A0009C4222D0002D12D1304343424341DBB255
:1012B000002C1FD0002B0CD04B460120013B0343D8
:1012C00018003CBC90469946A246AB46F0BD002CA7
:1012D00016D0CB4517D05B46594201230B43EFE7AD
:1012E000310002230143EBD1D9E739000223114336
:1012F000E6D1D7E73A43DDD100230028E0D0EAE782
:101300003A43E6D1E7E7A542E5DC05DBBE42E2D899
:1013100007D00023BE42D3D25946012301390B43E3
:10132000CEE7C445D7D80023C445F5D3C8E7C046A7
:10133000FF070000F0B557464546DE464E46E0B58D
:101340000C0398464E00230B87B0070092469B463D
:10135000760DCD0F002E6BD06D4B9E4235D0802484
:101360005B46420F2404DB0014431C43C300994630
:10137000684BA3469C4600230027664402934346DD
:101380001C035A00DB0F5046240B520D984600D127
:1013900076E05F4B9A426DD08023410F1B040B43D4
:1013A0005C49E4008C461C43C30000206244414673
:1013B000B6186940721C0191944607430F2F00D95B
:1013C000B0E0554ABF00D25997465B460343994661
:1013D00000D087E000239B46023308270293CEE724
:1013E00042460192022867D0032800D10EE201286C
:1013F00000D062E1002300240022994601990140B7
:10140000CDB2002112030B0D120B1B051343434AEF
:10141000240513401C436400ED0764082C43484630
:10142000210007B03CBC90469946A246AB46F0BDB1
:10143000034399464FD05B46002B00D189E15846C3
:1014400000F0DCFD03000B3B1C2B00DD7AE11D22CC
:10145000D31A3A0001005C46DA4008398C40130088
:101460008F4023439B46B94600232D4E0027361A52
:10147000029384E7534623432AD10024022096E7AF
:101480005346234320D0002C00D157E1200000F028
:10149000B5FD03000B3B1C2B00DD49E11D21CB1AE0
:1014A00051460200D9405346083A944093400C43B9
:1014B0001B4A121A00207AE70125019B144C1D409B
:1014C0000023002299469CE70024002201206EE7B9
:1014D000534603206BE700239B4601330427002675
:1014E00002934CE7032381460C27029347E78022AF
:1014F0000023002512039946054C82E75C464B46C3
:1015000002986FE75C464B46019502986AE7C04631
:10151000FF07000001FCFFFF18710008FFFF0F80AC
:101520000DFCFFFF4A464946170C1A0C1B041B0C06
:1015300008041900000C41431500884619007D433A
:101540007943039589462900150045434D4402958A
:1015500045462D0CAA46029D5544A94506D98A4602
:10156000802149028946CA4451460391290C0491BD
:10157000414609042D04090C88462900250C240441
:101580004144240C059121004143884621007943C0
:101590008A466843414650448146080C48446F439C
:1015A000824503D98021490289464F44010C89466E
:1015B00039004944029141460F0404993F0C884682
:1015C0000004C01980444146049159460F0C090497
:1015D000090C884659438A46390051438946414699
:1015E0004A435146090C8B467B43D2185A449342D6
:1015F00003D980235B029B46D94451460904090C58
:101600008A46414661437C43130C12044B445244C6
:10161000A1468A463C0041466C434D4351464D44E9
:101620000F0C7D19A94503D98021490288464444FD
:10163000049F0399B84641448B468345804141420B
:101640008846514608042F04000C3F18584602995A
:1016500010188946904292414F44BA4652429946E8
:101660009346C244D144CB448F42BF41C2458941D5
:1016700099459B41934592417F4249422D0C5242EC
:101680000F435B4213437F19FF185B463C19DB0D88
:10169000059A64021C43430213435D1EAB415A4644
:1016A000C00D034352021343E20156D501205A08EC
:1016B00003401343E207134364085A486044002878
:1016C0004DDD5A0709D00F221A40042A05D01A1DF1
:1016D0009A429B415B42E4181300E20104D580204A
:1016E000514AC00014406044504A904200DDE3E695
:1016F0000125DB0862071A436402019B9146220B15
:101700004405640D1D407CE68022594612031142B7
:1017100008D0144206D122431203120B45469946C3
:10172000434C6EE65B461A431203120B404C68E6CC
:1017300003005446283B9C400023B9E600F05EFCC1
:101740002030A6E60300283B9F400023BB46994675
:101750008AE600F053FC203074E6B446ADE701257C
:101760002A1A382A06DD019B00241D40002300228E
:10177000994646E61F2A21DC20252000AD1A1E00CE
:10178000AB40A840D6405D1EAB4130431843D44027
:10179000430709D00F230340042B05D00300181D75
:1017A00098429B415B42E418230221D50125019B0D
:1017B00001241D4000230022994622E61F25210016
:1017C0006D42281AC1400800202A1DD05F35AA1A90
:1017D000944023435C1EA341072503431D40002280
:1017E000002D09D00F2200241A401800042AD6D157
:1017F000030065076402220BDB082B430125994691
:10180000019B00241D40FCE50024E2E78022012525
:101810001203224301991203120B0D409946044C06
:10182000EFE5C046FF030000FFFFFFFEFE070000DC
:10183000FF070000F0B54646D6464F460C03C0B53C
:10184000CD0F4E00610A440F0C43C1005800400DFB
:1018500084468A460F001903500F490A0143C648BF
:10186000760DA846DB0FD200844500D1D8E00120D8
:101870004340AB4200D1A6E06046351A002D00DCA3
:1018800005E1002810D10B00134300D1D7E06B1EF7
:10189000002B00D04BE153469F1ABA458041641A91
:1018A0004042241A01261EE0B34B9E4248D08023BA
:1018B0001B041943382D00DD19E11F2D00DD4CE11B
:1018C00020230F005B1B10009A409F40E840531EEE
:1018D0009A41E940074317435346DF1B611ABA4553
:1018E000A44164420C1B230200D4C5E06402650AD3
:1018F000002D00D1F6E0280000F080FB0300083B3B
:101900001F2B00DDE9E020223C00D21A9D40D4408C
:101910009F4025439E4200DDDBE09E1B731C1F2B76
:1019200000DD0AE120223800D21A290097402C005D
:101930009140D8407A1E9741DC40002601430F4376
:101940007B0709D00F233B40042B05D03B1DBB4236
:10195000BF417F42E4191F00230225D5864B013683
:101960009E4200D1AFE0854B01251C4043466207F3
:10197000FF08640276051743240B760D1D400021F5
:101980002403230B0C0D7E4A24051C43144033050D
:1019900023435B00ED075B082B43380019001CBC98
:1019A00090469946A246F0BD012543466207FF08CE
:1019B0001743E4081D40704B9E4236D02403760541
:1019C000240B760DDBE76346F31A002B00DC94E072
:1019D0006046002835D068488642B1D080273F0451
:1019E0003943382B00DCFDE00A43170000217A1E42
:1019F0009741574457458041091944420C19230225
:101A00003AD55D4B01369E4200D14BE101225B4B42
:101A10001C407B0817401F43E207174364088FE709
:101A20000800104300D024E721E723003B4300D106
:101A3000B9E18022120314432403240B9FE72E00F4
:101A40007EE70800104300D1CAE0581E84460028F3
:101A500000D0E7E0524452458041641840422418C7
:101A600017000126230207D50226CFE764462C4340
:101A700000D1B3E12C0067467B0700D062E7630723
:101A8000FF081F4301254346E4081D4093E7002D4E
:101A900078D1751C6D056D0D012D00DCF2E050460E
:101AA000801A8245BF41651A7F42ED1B8446280299
:101AB00000D48CE05046171ABA4292410C1B554292
:101AC000651B984614E70125434600241D40002766
:101AD00055E72A4CF61A2C4032E73D00283885405D
:101AE000002717E7380000F089FA203006E70A439C
:101AF000170000217A1E9741EEE6002B00D0E5E0AA
:101B0000731C9C465B055B0D012B00DC9FE01A4BB0
:101B10009C4500D1C5E05244524580416418404282
:101B20002418E707520817436408664608E7124876
:101B3000854200D185E01D00BCE629001F3EF14032
:101B4000202B00D17FE04022D31A9D402F437D1EE1
:101B5000AF4100240F4300268EE72B000F00203BEF
:101B6000DF40202D71D040235D1BA9400A43511E48
:101B70008A4100211743AFE6FF070000FFFF7FFF08
:101B8000FFFF0F80002E3ED0B34EB44545D08026D7
:101B900036046D423443382D00DDA8E01F2D00DDF2
:101BA0001FE1202627005046761BB740E840074338
:101BB0005046B040461EB041EC403843171ABA4276
:101BC00092410C1B5242A41A664698468BE6644624
:101BD00067462C4300D08BE6002500260027EAE666
:101BE0001E00ADE61F2B60DC2027F81A0F0084468C
:101BF00087401000D840074360468240501E824113
:101C0000D9401743F5E626005046064305D0ED437C
:101C1000002DD3D0904EB445BDD10C0017006646C0
:101C200098468DE68C4883420BD06346D9E6002D5A
:101C300000D096E00800104300D1E2E00C0017004D
:101C40009846854E7CE6002580E700218EE723003C
:101C500050460343002E00D0A8E0002B00D1DEE068
:101C60000B00134300D16BE6524452458041641887
:101C7000404224181700230200D4FDE6774B664645
:101C80001C405DE6250050460543002ECFD1002DB7
:101C90004FD10C00144300D1A0E00C00170098466F
:101CA0004EE666460024002785E61F000800203F18
:101CB000F8400700202B00D18EE04020C31A994045
:101CC0000A43511E8A410021174392E6002E14D187
:101CD00026005046064362D0DB43002B5CD18718B8
:101CE0009742924164185242A418664687E65046CD
:101CF0002043441EA041002460E7574EB4454ED017
:101D0000802636045B423443382B00DD7FE01F2BF6
:101D100000DD8BE0202627005046F61AB740D84059
:101D200007435046B040461EB0410743DC40BF1851
:101D3000D6E70D00154300D102E65046801A8245D1
:101D4000BF41651A7F42ED1B8446280200D48DE610
:101D50005046171ABA4292410C1B5242A41A984696
:101D6000EEE50D00154300D16BE750466707C0084C
:101D700007438020E4080003044207D0CD08054251
:101D800004D12C009846D70849070F437B0FE40085
:101D90001C43FF00304ED3E52F4EB445B4D10C00A8
:101DA00017006646CCE500270024E8E5002B39D073
:101DB0000B00134300D144E7C008670707438020A6
:101DC000E40800030442E1D0CB080342DED1D70887
:101DD00049070F431C00D9E7002171E700250027C0
:101DE000E9E52E002700203EF740202D2FD0402689
:101DF000751BAC4050462043441EA041002438438C
:101E0000DCE6802400252403134E0027D3E550464A
:101E100020430700781E87410024BF1860E70C00AC
:101E200017008DE50C0017000B4E89E51E002700FA
:101E3000203EF740202B0CD04026F31A9C40504601
:101E40002043441EA04107430024BF1848E7002454
:101E5000D0E70024F3E7C046FF070000FFFF7FFF45
:101E600070B50E4E0D031C0349005B002D0B490D90
:101E7000240B5B0DB14204D0084900208B4208D0EE
:101E800070BD05430120002DFAD1044900208B428A
:101E9000F6D114432000441EA041F1E7FF070000E3
:101EA00030B5134D0A034B00120B5B0DC90F002414
:101EB000AB4210DD0F4CA3420FDC80240E4D6403B7
:101EC0002243ED1A1F2D0BDD0C48C31ADA40544291
:101ED000002900D11400200030BD094BCC18FAE7CE
:101EE000084CE840A44663449A400243EFE7C046EA
:101EF000FE0300001D040000330400001304000072
:101F0000FFFFFF7FEDFBFFFF70B5002830D0C31748
:101F1000C4185C40C50F200000F070F8174B184A39
:101F20001B1AD21A1F2A18DD164AD21A9440002210
:101F300024035B05240B5B0D0021100024030A0D14
:101F4000240B12052243104C1B05224013435B0057
:101F5000ED075B082B43190070BD210091400A007A
:101F60000B21081AC4405B052403240B5B0DE3E737
:101F70000025002300240022DEE7C0461E040000E6
:101F80003304000013040000FFFF0F8010B5041E8F
:101F900028D000F033F8154B154A1B1AD21A1F2A05
:101FA00015DD144AD21A9440002224035B05240B49
:101FB0005B0D0021100024030A0D240B120522439F
:101FC0000D4C1B05224013435B00590810BD210036
:101FD00091400A000B21081AC4405B052403240B1E
:101FE0005B0DE6E7002300240022E2E71E04000068
:101FF0003304000013040000FFFF0F801C210123A5
:102000001B04984201D3000C10391B0A984201D3DB
:10201000000A08391B09984201D30009043902A2B9
:10202000105C40187047C046040302020101010120
:10203000000000000000000070B582B004000368DA
:10204000DB0335D5414BDB69DB0052D43F4AD16914
:10205000802040050143D161D36903400193019B76
:1020600001253B4B1B68DB0545D5384B1B6AC0225D
:102070009200134013D061680A4093420FD0334B53
:10208000186A344A02401E6A8021490231431962AB
:10209000196A314E314019621A62C3073FD42B4A84
:1020A000136A2C490B4061680B431362012D45D024
:1020B0002368DB0706D5254A136B03218B43A168F0
:1020C0000B43136323689B0606D5204A136B10212C
:1020D0008B43E1680B43136323685B0533D51B4ACD
:1020E000136B40218B4321690B431363002002B023
:1020F00070BD0025B5E7164A116880235B000B43CD
:10210000136001F06BFE0600114B1B68DB05ACD4BD
:1021100001F064FE801B6428F6D90320E7E701F094
:102120005DFE0600094B1B6A9B07B8D401F056FE02
:10213000801B0A4B9842F5D90320D8E7D369084998
:102140000B40D361B4E70020D1E7C0460010024045
:1021500000700040FFFCFFFFFFFFFEFF8813000040
:10216000FFFFFFEF114B1A6801210A431A605A68FA
:102170000F4802405A601A680E4802401A601A68F6
:102180000D4802401A605A680C4802405A60DA6AE8
:102190000F208243DA621A6B094802401A635A6BB5
:1021A0008A435A6300229A607047C046001002407A
:1021B0000CB8FFF8FFFFF6FEFFFFFBFFFFFFC0FFBD
:1021C000ACFEFFFF30B5036A012293430362036A4A
:1021D000446882697325AA430D682A430225AB43EC
:1021E0008D682B43154DA84220D0154DA8421DD017
:1021F000144DA8421AD0144DA84217D00F4DA84232
:1022000008D00F4DA84205D00E4DA84202D00E4D69
:10221000A84205D10D4D2C404D692C438D692C43AE
:10222000446082614A684263036230BD0825AB4363
:10223000CD682B430425AB43E0E7C046002C0140AA
:10224000004001400044014000480140FFFCFFFF06
:1022500030B5036A1A4A13400362036A4568C469C9
:102260007532FF3294430A681443164A13408A6851
:1022700012021343144A904219D0134A904208D0D4
:10228000124A904205D0124A904202D0114A90421E
:1022900007D1114A15404A69120115438A69120192
:1022A00015434560C4614A68C263036230BD0B4A8E
:1022B0001340CA6812021343094A1340DDE7C046BF
:1022C000FFFEFFFFFFFDFFFF002C0140004001402B
:1022D0000044014000480140FFCFFFFFFFF7FFFF30
:1022E000FFFBFFFF30B5036A134A13400362036A22
:1022F0004568C269114C22400C6824022243104CEC
:1023000023408C68240323430E4CA04208D00E4C7B
:10231000A04205D00D4CA04202D00D4CA04204D1E9
:102320000C4C2C404D69AD0125434560C2614A68A3
:102330000264036230BDC046FFEFFFFFFF8CFFFF6A
:10234000FFDFFFFF002C014000400140004401403E
:1023500000480140FFBFFFFF10B53D220223835418
:102360000468236801210B4323608154002010BDC1
:102370000368DA6801210A43DA60026813680B43D4
:1023800013600020704700000268D36801218B436E
:10239000D3600368196A064A114207D1196A054ACF
:1023A000114203D11A6801218A431A600020704744
:1023B00011110000440400007047704770477047D7
:1023C00010B5040003681A6992070FD5DA689207FE
:1023D0000CD5032252421A610123037703689B69DB
:1023E0009B0763D0FFF7E9FF0023237723681A696F
:1023F000520712D5DA6852070FD5052252421A61E8
:102400000223237723689A69C0239B001A4253D082
:102410002000FFF7D2FF0023237723681A691207F1
:1024200010D5DA6812070DD5092252421A61042329
:1024300023772368DB699B0745D02000FFF7BDFFAA
:102440000023237723681A69D20612D5DA68D206E8
:102450000FD5112252421A61082323772368DA69C3
:10246000C0239B001A4235D02000FFF7A6FF0023AF
:10247000237723681A69D20702D5DA68D20730D4E5
:1024800023681A69120602D5DA68120630D4236866
:102490001A69520602D5DA68520630D423681A69DE
:1024A000920602D5DA68920630D410BDFFF784FF99
:1024B0002000FFF783FF97E72000FFF77DFF200054
:1024C000FFF77CFFA7E72000FFF776FF2000FFF76C
:1024D00075FFB5E72000FFF76FFF2000FFF76EFFE5
:1024E000C5E7022252421A61200000F013FDC7E73F
:1024F000812252421A61200001F045FCC7E74122C7
:1025000052421A612000FFF75AFFC7E721225242C8
:102510001A61200001F036FCC7E700000368214A79
:1025200090423AD08022D205904236D01E4A904244
:1025300033D01C4A904212D08022D20590420ED055
:10254000194A90420BD0194A904208D0184A90423A
:1025500005D0184A904202D0174A904203D1174A38
:102560001340CA681343802293434A6913430360AC
:102570008B68C3620B6883620A4B984208D00C4B8D
:10258000984205D00B4B984202D00B4B984201D198
:102590000B690363012343617047702293434A68C8
:1025A0001343C6E7002C0140000400400020004017
:1025B000004001400044014000480140FFFCFFFF93
:1025C00070B5041E14D03D23C35C002B0AD03D25FA
:1025D00002236355211D2068FFF7A0FF01236355E7
:1025E000002070BD00223C33C25400F0AFF9EEE78A
:1025F0000120F6E770B5041E14D03D23C35C002B08
:102600000AD03D2502236355211D2068FFF786FF70
:1026100001236355002070BD00223C33C25400F0FA
:102620007FF9EEE70120F6E730B5036A1022934305
:102630000362036A45688469174A14400A681202F3
:102640001443202293438A6812011343134A904291
:1026500019D0124A904208D0114A904205D0114A2E
:10266000904202D0104A904207D1104A15404A6960
:10267000920015438A6992001543456084614A6857
:102680008263036230BD80229343CA681201134300
:1026900040229343DDE7C046FF8CFFFF002C014042
:1026A000004001400044014000480140FFF3FFFFAB
:1026B00070B504000D003C23C35C012B69D00121DF
:1026C0003C23C15401310133C154042A37D019D9F4
:1026D000082A4AD00C2A2AD129000068FFF702FEF6
:1026E0002268D16980231B010B43D3612268D3691F
:1026F00029490B40D3612168CB692A69120213432F
:10270000CB6114E0002A12D129000068FFF75AFDBE
:102710002268936908210B43936122689369043905
:102720008B4393612268936929690B43936101226A
:102730003D23E2540022013BE254002070BD2900F9
:102740000068FFF771FF2268916980231B010B432A
:1027500093612268936910490B40936121688B69EA
:102760002A69120213438B61E1E729000068FFF731
:102770006FFD2268D36908210B43D3612268D369B6
:1027800004398B43D3612268D36929690B43D36130
:10279000CDE70220D2E7C046FFFBFFFF10B50124C2
:1027A0008C40036AA3430362036A8A401A430262AD
:1027B00010BD000010B5040001220068FFF7EEFF15
:1027C0002368114A934219D0104A934218D0104AF4
:1027D000934217D00F4A93420ED00022002A04D011
:1027E000596C802212020A435A642268136801213C
:1027F0000B431360002010BD0122EFE70122EDE73B
:102800000122EBE70122E9E7002C014000400140F2
:10281000004401400048014000B583B00E4A916970
:10282000012319439161926913400193019B002296
:1028300000210520404200F063FA0022002102201E
:10284000404200F05DFA002200210120404200F0E9
:1028500057FA03B000BDC0460010024030B587B043
:1028600004001C4B02689A4201D007B030BD1A4ADE
:102870009169802080000143916193690340009336
:10288000009B08230193053B02930025039501A9B2
:102890009020C00500F0CAF81048114B0360456055
:1028A00085608023C360803303618023DB00436144
:1028B0002023836180235B01C36101F047F9002875
:1028C00003D1064BE3635C62CFE76821054800F063
:1028D00095FBF6E7002401400010024010040020A0
:1028E000080002407071000810B50400094B02682E
:1028F0009A4200D010BD084A936908490B40936181
:1029000008219020C00500F057F9E06B01F04AF96A
:10291000F0E7C0460024014000100240FFFDFFFF29
:1029200082B00268074B9A4201D002B07047064A53
:1029300091698020000101439161936903400193F3
:10294000019BF2E7002C01400010024000B583B06B
:102950000368134A934204D0124A934214D003B03E
:1029600000BD114A91698020800201439161936901
:1029700003400093009B00220021152000F0C0F9C5
:10298000152000F0EFF9EAE7074A91698020C002BC
:1029900001439161936903400193019BDFE7C046C6
:1029A00000440140004801400010024000B587B0DB
:1029B00002680A4B9A4201D007B000BD80231B0178
:1029C000019302230293002203920492059301A92A
:1029D0009020C00500F02AF8EEE7C046002C014028
:1029E00000B587B002680E4B9A4201D007B000BD17
:1029F0000C4A91698020C0010143916193690340B1
:102A00000093009B402301932E3B029300230393EA
:102A100003220492059301A9034800F007F8E5E7B3
:102A2000003801400010024000040048F0B5C646DE
:102A300000B582B000237EE0DF080837BF003E58B3
:102A400007251D40AD000F24AC40A6430C69AC40E7
:102A5000250035433D507EE0856864462540CE68BC
:102A6000BE403543856045682C004546AC434D6803
:102A70002E09012535409D402C434460C4686546BD
:102A80002C408D68BD402C43C4604C68E40051D597
:102A9000434DAE6901242643AE61AD692C400194DB
:102AA000019C9C08A51CAD003E4EAE5903251D405F
:102AB000AD000F27AF40BE439027FF05B84265D059
:102AC000394FB84264D0394FB84263D0384FB8421A
:102AD0005AD00527AF403D0035430234A400314EA3
:102AE000A551344C2568D44326002E404F68FF037F
:102AF00001D515432E002F4D2E606D682E00264007
:102B00004F68BF0301D515432E002A4D6E60AD6896
:102B10002E0026404F68FF0201D515432E00254D9B
:102B2000AE60ED682C404E68B60201D52A43140011
:102B3000204AD46001330A681400DC402CD0012400
:102B40009C40A0462240F5D04D68022D00D173E78D
:102B5000122D00D170E706685F0003252C00BC40F1
:102B6000E443A44626404C682540BD4035430560FB
:102B70004D686E1E012E00D86EE7112D00D16BE757
:102B8000122D00D07AE767E70327A3E70027A1E724
:102B900001279FE702279DE702B004BC9046F0BDE5
:102BA00000100240000001400004004800080048F6
:102BB000000C004800040140F0B5D6464F4646469A
:102BC000C0B5002306E0032600E000269640B4428C
:102BD00049D001330A00DA405BD001229A40140048
:102BE0000C40A446F5D005685E000324A2462700E9
:102BF000B740FF433D400560DE080836B600345854
:102C0000A14607251D40AD000F24A046AC4025007D
:102C10004C46AC43345085683D40856045689543DB
:102C20004560C2681740C7609D08AA1C92001B4EF1
:102C3000965952461A4092004746974034003C400D
:102C40009026F605B042C0D0154EB04207D0154EC2
:102C5000B04206D0144EB042B5D00526B6E70126E4
:102C6000B4E70226B2E70D4C0235AD002A59BA434B
:102C70002A510E4C25686246D2431540256065688E
:102C800015406560A5681540A560E5682A40E260CA
:102C90009FE71CBC90469946A246F0BD000001404B
:102CA0000004004800080048000C004800040140EF
:102CB00003690B4201D1002070470120FCE7002A84
:102CC00001D1816270478161FCE77047FEE7704780
:102CD000704710B501F07AF800F07BF810BD0000E5
:102CE00010B5024800F095FF10BDC046100400204A
:102CF00010B50248FFF764FB10BDC046A0040020D9
:102D000070B5002811DB8308144DC0339B005C595B
:102D100003221040C000FC3216008640B4438901F3
:102D20000A40824022435A5170BDC0B20F23034073
:102D3000083B9B0806339B00094A944663445D6840
:102D400003221040C000FF242200824095438901E5
:102D50000C4084402C435C60E6E7C04600E100E0A4
:102D600000ED00E01F2318401E3B8340014A136022
:102D70007047C04600E100E001380A4B98420FD886
:102D8000094A50600948036A1B021B0AC021090650
:102D90000B430362002393600733136000207047E6
:102DA0000120FCE7FFFFFF0010E000E000ED00E085
:102DB000042805D0054A136804218B43136070472B
:102DC000024A136804210B431360F8E710E000E0A7
:102DD000704710B5FFF7FCFF10BD0000F0B589B0DB
:102DE0001E4B596980208002014359615A69024093
:102DF0000192019A5A698021C9020A435A615B69AA
:102E00000B400293029B0022BB211548FFF757FF9E
:102E100091273F029025ED05002239002800FFF799
:102E20004EFF1123039300240494059403A9280062
:102E3000FFF7FCFDBB23039301260496059406943B
:102E400003A90748FFF7F2FD03970496059406943B
:102E500003A92800FFF7EAFD09B0F0BD0010024009
:102E60000004004800B583B0094A516901231943A1
:102E70005161526913400193019B002200210920F6
:102E8000FFF73EFF0920FFF76DFF03B000BDC0460E
:102E90000010024000B583B00190044B012201A94B
:102EA000034801F033F9019803B000BDFFFF0000B3
:102EB0006003002010B588B06023019302900023C6
:102EC00003930593054C0C2201A92000FFF7F0FBAA
:102ED0000C212000FFF76EFC08B010BDD0030020CD
:102EE00010B50B4C002201212000FFF7E8FE002264
:102EF00002212000FFF7E3FE002210212000FFF74F
:102F0000DEFE002220212000FFF7D9FE10BDC046C2
:102F10000004004810B52B4B1B68002B3CD02A4BFB
:102F20001B68002B20D0FFF7DBFF284C012201217A
:102F30002000FFF7C4FE002202212000FFF7BFFEA1
:102F4000002210212000FFF7BAFE012220212000DC
:102F5000FFF7B5FE1C4A136859424B411360194AEA
:102F60001368013B136010BDFFF7BAFF174C002236
:102F700001212000FFF7A3FE012202212000FFF71C
:102F80009EFE012210212000FFF799FE0022202141
:102F90002000FFF794FEDDE70C4C00220121200009
:102FA000FFF78DFE002202212000FFF788FE00229D
:102FB00010212000FFF783FE002220212000FFF7D0
:102FC0007EFED0E70C030020100300200004004820
:102FD00010B504000748FFF7CBF9074B1C60064B00
:102FE0001B68002BFBD1FFF77BFF0248FFF7CCF9F2
:102FF00010BDC046A00400200C03002070B50500E1
:103000000C0022002900024802F09EF8F9E7C046B1
:103010008871000870B501000B4C0C4B2360002533
:103020006560A5600A48FDF78DF8E060256165617F
:10303000A5612000FFF7C4FA002800D170BDB921B6
:103040000448FFF7DBFFC046A00400200044014015
:1030500000366E01B071000800B585B01848194BF4
:103060000360002343608360C36001220261042186
:1030700041618361C36102624362C221FF318162A7
:10308000C3620263426301F09FF900280FD103235A
:10309000019380235B01029380235B05039301A9C5
:1030A000074801F0E5FA002805D105B000BD064942
:1030B0000648FFF7A3FF06490448FFF79FFFC046F5
:1030C00054040020002401403D020000B0710008BB
:1030D0004702000030B585B005000C4C200001F01F
:1030E00039FAFFF7B9FF019580235B010293802332
:1030F0005B05039301A9200001F0BAFA002801D171
:1031000005B030BDF2210248FFF778FF54040020DB
:10311000B071000810B50C480C4B0360E123DB02D2
:10312000436000238360C3600361082242618361BE
:10313000C3610362436201F097F8002800D110BD1B
:1031400003490448FFF75AFF60030020003801409C
:10315000B6020000B071000800B591B02648274BB8
:10316000036001234360002383606422C260036123
:1031700043618361FFF73EFA00282CD100230E93B0
:103180000F930EA91C4800F099FD002827D1602359
:1031900007930023089309930B930C930D930C2230
:1031A00007A91548FFF784FA00281DD100230093D2
:1031B0000193029303930493802292010592069354
:1031C00069460D4800F0A0FD002811D10A48FFF71C
:1031D000EDFB11B000BD0A490A48FFF70FFF992126
:1031E00089000848FFF70AFF07490648FFF706FF6E
:1031F00006490448FFF702FFD0030020002C0140DD
:103200005D020000B07100086F0200007B02000048
:1032100010B50A480A4B0360002343608360FA221A
:103220009200C260036143618361FFF7C9F900281E
:1032300000D110BD03490448FFF7E0FEA0040020C0
:10324000004401408F020000B071000810B50A4828
:103250000A4B03600823436000238360084AC2606E
:10326000036143618361FFF7ABF9002800D110BD12
:1032700004490548FFF7C2FE200300200048014032
:10328000E8FD0000A1020000B071000800B597B091
:1032900012230A93113B0D930F930F330E93109348
:1032A0000E3B129300231393A022920314921593C2
:1032B0000AA800F01BF9002828D107230693053B34
:1032C0000793002308930993012106A800F06AFBE5
:1032D00000281FD1012301930023039301A8FEF7C7
:1032E000ABFE00281AD100F007FCFA218900FCF798
:1032F00029FFFFF741FD0420FFF75AFD00220021BE
:1033000001204042FFF7FCFC17B000BD054906480C
:10331000FFF774FE05490448FFF770FE04490248B0
:10332000FFF76CFE02020000B07100080F020000FF
:103330001602000070B500F039FDFFF7A7FFFFF798
:103340004DFDFFF78FFDFFF7E5FEFFF705FFFFF7E8
:1033500083FEFFF75DFFFFF779FF3248FEF7FCFFC2
:10336000314801F047F90120FFF7B4FE57E0002C87
:103370000BD02E490B682B4A1268506A9C002C4ACD
:103380001219508001330B600024284B1B68452B19
:1033900018DC244B1B685A6A264B9A4212D801212A
:1033A0009020C005FFF784FC0028E0D0002CECD171
:1033B0001E4B1B681B4A1268516A9B001C4A99529B
:1033C0000134E2E70A20FFF775FD032000F00CFD51
:1033D000002408E0A200164BD35A22002900164808
:1033E00001F0B2FE0134114B1B689C42F2DB323516
:1033F000124B9D4210D82800FFF70CFE0020FFF76B
:1034000059FD0520FFF7E4FD0023084A1360054A33
:10341000126853620024B8E7094801F00FFF094D14
:10342000E6E7C0462003002054040020F0010020FD
:10343000F40100205FEA00009C7100083F9C00003E
:10344000A8710008204E000003000E4A1268002AEE
:103450000DD00C4A10680C4A126812680B498C4651
:103460006244C3189A4206D3064A1360704708495B
:10347000044A1160EDE70C22064B1A60012040421D
:10348000F4E7C0461403002008ED00E000FEFFFF53
:10349000E8040020E404002070B51600002405E0D4
:1034A0004D1C0878FFF7F6FC01342900B442F7DB25
:1034B000300070BD01204042704780239B014B606B
:1034C000002070470120704700207047F8B50D00BC
:1034D0001700002405E06E1C00E000BF28700134D6
:1034E0003500BC42F7DB3800F8BD000070B582B093
:1034F00004000368DB0736D5C14B5A680C23134020
:10350000042B28D0BE4B5A680C231340082B1ED026
:103510006368012B4BD0002B50D1B94B1A68B949C5
:103520000A401A601A68B8490A401A606368002B9A
:103530005CD000F053FC0500B14B1B689B0312D418
:1035400000F04CFC401B6428F6D90320EAE1AC4BA8
:103550005B68DB03DCD5AA4B1B689B0303D5636860
:10356000002B00D1DBE123689B0762D5A44B5B688D
:103570000C221A424CD0A24B5A680C231340082B41
:1035800042D0E368002B76D09D4A136801210B439B
:10359000136000F023FC0500994B1B689B0761D466
:1035A00000F01CFC401B0228F6D90320BAE1944A23
:1035B000116880235B020B431360B7E7052B09D02A
:1035C0008F4B1A688F490A401A601A688E490A4060
:1035D0001A60ABE78A4B19688022D2020A431A604C
:1035E0001968802252020A431A609FE700F0F6FB36
:1035F0000500834B1B689B03B5D500F0EFFB401B18
:103600006428F6D903208DE17D4B5B68DB03B8D4D9
:103610007B4B1B689B0704D5E368012B01D001207D
:1036200080E177490B68F82293432269D200134363
:103630000B6023681B0744D5E369002B2ED0704A2A
:10364000536A01210B43536200F0C8FB05006C4B29
:103650005B6A9B0735D400F0C1FB401B0228F6D9FA
:1036600003205FE166490B68F82293432269D20088
:1036700013430B60DDE7624A136801218B4313603B
:1036800000F0ACFB05005E4B1B689B07D1D500F03A
:10369000A5FB401B0228F6D9032043E1584A536A90
:1036A00001218B43536200F099FB0500544B5B6A88
:1036B0009B0706D500F092FB401B0228F6D9032099
:1036C00030E123685B0775D54D4BDB69DB002ED4F9
:1036D0004B4AD169802040050143D161D369034041
:1036E0000193019B0125494B1B68DB0521D5A3688C
:1036F000012B32D0002B36D1414B1A6A01218A436B
:103700001A621A6A03318A431A62A368002B40D0F6
:1037100000F064FB06003A4B1B6A9B0748D400F09C
:103720005DFB801B3A4B9842F5D90320FAE0002557
:10373000D9E7364A116880235B000B43136000F021
:103740004DFB0600314B1B68DB05D0D400F046FB77
:10375000801B6428F6D90320E4E0294A136A01217A
:103760000B431362D1E7052B09D0254B1A6A0121BF
:103770008A431A621A6A03318A431A62C5E7204BE8
:103780001A6A04210A431A621A6A03390A431A623E
:10379000BBE700F023FB0600194B1B6A9B0707D50C
:1037A00000F01CFB801B1A4B9842F5D90320B9E0AE
:1037B000012D1ED02368DB065AD56369012B2BD05F
:1037C000053349D00E4B5A6B04210A435A635A6B96
:1037D00003398A435A6300F001FB0500084B5B6B19
:1037E0009B0745D500F0FAFA401B0228F6D90320C2
:1037F00098E0034AD36907490B40D361DAE7C04632
:1038000000100240FFFFFEFFFFFFFBFF00700040C3
:1038100088130000FFFFFFEF444B5A6B04210A435B
:103820005A635A6B03390A435A6300F0D7FA05000A
:103830003E4B5B6B9B0706D400F0D0FA401B02287E
:10384000F6D903206EE039494B6BF8229343A26905
:10385000D20013434B630BE0344A536B04218B4378
:103860005363536BF4318B43A169C9000B4353631A
:10387000236A002B55D02D4A51680C220A40082A91
:1038800052D0022B12D0294A136829490B401360E9
:1038900000F0A4FA0400254B1B689B013DD500F005
:1038A0009DFA001B0228F6D903203BE01F4A13684B
:1038B0001F490B40136000F091FA05001B4B1B6879
:1038C0009B0106D500F08AFA401B0228F6D9032096
:1038D00028E0164BDA6A0F218A43E16A0A43DA626A
:1038E0005A6814490A40A16A606A01430A435A604F
:1038F0001968802252040A431A6000F06FFA04002B
:103900000A4B1B689B0106D400F068FA001B0228D2
:10391000F6D9032006E0002004E0002002E00120A8
:1039200000E0002002B070BD0120FBE70010024063
:10393000FFFFFFFEFFFFC2FF30B589B004AA154BA1
:10394000180032C832C2110002680A606A46103399
:1039500013CB13C21B6813600F4B5A680C23134020
:10396000082B13D1910C0733194004A8445C0A4971
:10397000C96A0B406946C95CD30302D40748604357
:1039800005E00748FCF7DEFB604300E0044809B0AF
:1039900030BDC046B87000080010024000093D006C
:1039A00000127A0070B505000C004D4B1A68012317
:1039B00013408B420BD24A490B68012293432343A5
:1039C0000B600B681A40944201D0012085E02B68FF
:1039D0009B0706D5434A5368F0218B43A9680B43E4
:1039E00053602B68DB074CD56B68012B21D0022B71
:1039F00025D03C4A1268920700D46FE039494A68E2
:103A00000320824313434B6000F0E8F906006B6823
:103A1000012B1AD0022B26D0324B5B680C221A42A3
:103A20002FD000F0DBF9801B2F4B9842F4D90320F4
:103A300053E02C4A12689203E0D401204DE0294A59
:103A400012689201DAD4012047E0264B5A680C2311
:103A50001340042B15D000F0C1F9801B224B984273
:103A6000F3D9032039E01F4B5A680C231340082B6D
:103A700007D000F0B3F9801B1B4B9842F3D9032009
:103A80002BE0174B1A68012313409C420BD21449B8
:103A90000B680122934323430B600B681A40944246
:103AA00001D0012019E02B685B0706D50D4A536849
:103AB0000E490B40E9680B435360FFF73DFF094B8C
:103AC0005A6812090F231340094AD35CD840094BA6
:103AD0001860002000F058F9002070BD0120FCE7BC
:103AE000002002400010024088130000FFF8FFFF92
:103AF0005871000800000020014B18687047C0464C
:103B00000000002010B5FFF7F7FF044B5A68120AB7
:103B100007231340024AD35CD84010BD0010024076
:103B20006871000810B504000368064A94466344AF
:103B300018001421FCF706FB80002064024BE363AD
:103B400010BDC046F8FFFDBF0000024070B5041E66
:103B500024D021250223435501680B68104A1A40DE
:103B6000436880680343E068034320690343606956
:103B70000343A0690343E069034313430B60200040
:103B8000FFF7D0FF0023A362E36223636363A363B1
:103B9000012262551F32A354002070BD0120FCE7B2
:103BA0000FC0FFFF70B5041E1AD00268136801260B
:103BB000B3431360036800251D6003685D600368FC
:103BC0009D600368DD60FFF7ADFFE36B226C9640FC
:103BD0005E60A5632123E554013BE554002070BDE0
:103BE0000120FCE710B5026813680E218B431360B7
:103BF00001680A6801239A430A60C26B1900046CC9
:103C0000A14051602122835400221F33C25400205E
:103C100010BD70B5C36B1A6804682568016C042375
:103C20008B40134212D06B0710D523689B0603D438
:103C30002368042293432360C26B0423016C8B40EE
:103C40005360C36A002B00D0984770BD02238B409D
:103C5000134218D0AB0716D523689B0606D42368F9
:103C60000A2293432360093A2123C254C26B0223E0
:103C7000016C8B40536000222023C254836A002BC6
:103C8000E3D09847E1E708238B401342DDD02B07B0
:103C9000DBD523680E2293432360C26B01231900F6
:103CA000046CA140516083632122835400221F339E
:103CB000C254036B002BC8D09847C6E7F0B53C232D
:103CC000C35C012B1ED03C22012585543D240223D8
:103CD0000355066873687027BB4373600668736892
:103CE0000F683B4373600668B3688027BB43B360CB
:103CF0000668B36849680B43B360055500238354D5
:103D00000020F0BD0220FCE770B53C23C35C012B12
:103D100028D03C22012585543D2402230355124B13
:103D2000CE6833408E683343104E33404E68334381
:103D30000F4E33400E6833430E4E33400E6933430B
:103D40000D4E33404E6933430C4E334089690B436B
:103D50000B4E33400B4301684B64055500238354DD
:103D6000002070BD0220FCE7FFFCFFFFFFFBFFFF10
:103D7000FFF7FFFFFFEFFFFFFFDFFFFFFFBFFFFFCB
:103D8000FF7FFFFF7047704710B50400FFF7B4FED8
:103D9000FA218900FCF7D6F9FEF7EEFF0022210098
:103DA00001204042FEF7ACFF002010BD10B5064ACE
:103DB000136810210B4313600020FFF7E5FFFEF7A7
:103DC0002BFD002010BDC04600200240024A1368AF
:103DD000013313607047C046E0040020014B1868AF
:103DE0007047C046E004002030B583B00190FFF773
:103DF000F5FF0500019C631C00D00134FFF7EEFFC6
:103E0000401BA042FAD303B030BD000070B50400DF
:103E100083680269134342691343C269134301680B
:103E20000A685F48024013430B60226853685D498B
:103E30000B40E1680B435360A369226A1343216876
:103E40008A685948024013438B602568574B9D424E
:103E500020D0574B9D4231D0102380221202E169BD
:103E600091422FD0022B00D17FE000D86FE0042BCD
:103E700000D186E0082B00D08FE0616848088023DD
:103E80001B029C466044FCF75DF90004000CE860EE
:103E9000002041E0474B1A6B03231340012B09D04C
:103EA000002B05D0022B07D0032B09D01023D4E719
:103EB0000023D2E70423D0E70823CEE70023CCE792
:103EC0000223CAE7022B28D00FD9042B30D0082BAD
:103ED0003AD16368580880235B029C46604461685D
:103EE000FCF730F983B200200CE0002B2CD1FFF757
:103EF00009FE400063685B08C0186168FCF722F99E
:103F000083B200200F22190091430A005B100721A1
:103F10000B4013432268D36070BD63685808264B7A
:103F20009C4660446168FCF70DF983B20020E9E724
:103F3000FFF702FD400063685B08C0186168FCF78A
:103F400001F983B20020DDE701200023DAE7002B2E
:103F500023D1FFF7D7FD61684B08C018FCF7F2F8D2
:103F60000004000CE8600020D6E761684808134BA5
:103F70009C466044FCF7E6F80004000CE860002072
:103F8000CAE7FFF7D9FC61684B08C018FCF7DAF8FC
:103F90000004000CE8600020BEE70120BCE7C0463A
:103FA000F369FFFFFFCFFFFFFFF4FFFF0038014081
:103FB00000440040001002400024F40000127A0087
:103FC000436ADB0706D5026853682C490B40816AB7
:103FD0000B435360436A9B0706D502685368284920
:103FE0000B40C16A0B435360436A5B0706D5026806
:103FF000536824490B40016B0B435360436A1B0712
:1040000006D50268536820490B40416B0B4353604F
:10401000436ADB0606D5026893681C490B40816B36
:104020000B439360436A9B0606D502689368184960
:104030000B40C16B0B439360436A5B060BD5026870
:10404000536814490B40016C0B43536080235B039E
:10405000026C9A420AD0436A1B0606D5026853686E
:104060000D490B40816C0B435360704702685368E5
:104070000A490B40416C0B435360ECE7FFFFFDFF27
:10408000FFFFFEFFFFFFFBFFFF7FFFFFFFEFFFFFD5
:10409000FFDFFFFFFFFFEFFFFFFFF7FFFFFF9FFFC8
:1040A000F0B5C64600B505000F0016009846069C00
:1040B0002B68DB693A009A4313005A425341B342DA
:1040C0001ED1631CF4D0002C05D0FFF787FE4346B9
:1040D000C01A8442ECD22A6813680B490B40136063
:1040E0002A689368A331FF318B43936020236922B0
:1040F000AB540132AB5400224833EA54032000E0B1
:10410000002004BC9046F0BD5FFEFFFFF0B585B017
:1041100004000F0016001D006923C35C202B02D091
:10412000022005B0F0BD00295BD0002A5BD08023BF
:104130005B0182689A4205D06823E35C012B08D1B9
:104140000220EEE70369002BF6D1CB07F4D501205E
:10415000E7E701226823E2540023E3662032693353
:10416000E254FFF73BFE03905023E6520233E6523F
:1041700003E03B782268138501375223E35A9BB250
:10418000002B1CD05222A35A013B9BB2A352009594
:10419000039B002280212000FFF782FF002824D10A
:1041A00080235B01A2689A42E3D12369002BE0D10E
:1041B0003B88DB05DB0D226813850237DDE70095C0
:1041C000039B002240212000FFF76AFF002801D056
:1041D0000320A6E720226923E2540022013BE25497
:1041E0009FE701209DE701209BE7032099E700005E
:1041F00030B583B004000023C366FFF7EFFD050070
:104200002368174A93420AD020236922A35401321B
:10421000A35400224833E254002003B030BD1B6891
:104220001B0710D423681B685B07EDD50D4B00936B
:104230002B0000228021C9032000FFF731FF002856
:10424000E2D00320E9E7074B00930300002280211E
:1042500089032000FFF724FF0028E3D00320DCE7D8
:1042600000380140FFFFFF0110B5041E35D069235F
:10427000C35C002B27D024226923E25422681368F0
:1042800001218B4313602000FFF7C0FD012819D0E6
:10429000636A002B1DD12268536811490B4053609B
:1042A0002268936822218B439360226893681A39AD
:1042B0000B4393602268136807390B431360200097
:1042C000FFF796FF10BD00226833C254FEF788FB4B
:1042D000D1E72000FFF774FEDDE70120F2E7C046DA
:1042E000FFB7FFFF70B5040003689A68520721D535
:1042F0009A68520706D59A68920703D49A681021E3
:104300000A439A60FFF76AFD050023689B685B0714
:104310000ED5FFF763FD401B0228F6D9636C10220F
:1043200013436364A36C0F3A1343A364012002E0B8
:10433000002000E0002070BD70B5040002689168A4
:1043400003230B40012B11D00023002B39D091689F
:1043500005230B40012B15D0636C102213436364BB
:10436000A36C0F3A1343A364012070BD1368DB07ED
:1043700004D4D3681B0403D40023E6E70123E4E755
:104380000123E2E7936802210B4393602368032231
:104390001A60FFF723FD050023689B68DB070ED535
:1043A000FFF71CFD401B0228F6D9636C1022134353
:1043B0006364A36C0F3A1343A3640120D5E7002084
:1043C000D3E70020D1E7000070B5041E00D1B9E0AA
:1043D000436C002B00D180E0636CDB0600D5ABE0C2
:1043E0002268936804210B4000D0A5E0616C564818
:1043F00001400630FF3001436164906803210140B1
:10440000012970D0002100290CD1D16818208143E6
:10441000A0680143D16021680A699200920860682F
:1044200002430A612168CA6848480240CA60A2691A
:104430009203E169C9030A43206A41030A43616B9D
:1044400001295CD0802149010A43E1680A432169BE
:10445000022956D01343226B52001343626A012A89
:1044600051D0A26AC221FF318A4202D0E16A0A43D6
:1044700013432168CA681A43CA60A26B80214905A8
:104480008A420DD0012A0BD0022A09D0032A07D074
:10449000042A05D0052A03D0062A01D0072A0AD10A
:1044A0002068416907229143416120684169A56BF9
:1044B0002A400A4342612268D26825490A40934251
:1044C00030D0636C12229343023A13436364A36CAB
:1044D0000F3A1343A364012033E0836440228354E2
:1044E000FEF7BCF978E71168C90704D4D16809045C
:1044F00003D4002187E7012185E7012183E7190023
:10450000A2E70423A6E7002803D180225202134326
:10451000A7E7626C20210A436264A26C1F390A4338
:10452000A2649EE70023A364636C03229343023AD0
:1045300013436364002004E0636C1022134363643C
:10454000012070BD0120FCE7FDFEFFFF1902FEFF08
:10455000E7FF3F8370B5041E42D0436C0222134331
:104560004364FFF7BFFE051E31D0012D2AD021681C
:104570004B689F2293434B6023681A602268D3687C
:1045800018490B40D360226813699B009B08136194
:104590002268536907218B4353612268136A1249C9
:1045A0000B4013622268936ADB0CDB0493620F4AB0
:1045B00013680F490B4013602000FEF795F90023A4
:1045C000A364636400224023E254280070BD2000ED
:1045D000FFF7B2FE05000128C7D001236364C4E7DA
:1045E0000125F2E700023E8300F000F008270140B9
:1045F000FFFF3FFE70B505004023C35C012B02D1D5
:104600000224200070BD01224023C254FFF76AFE3D
:10461000041E03D000224023EA54F2E72A68D3683C
:1046200001218B43D360E86BFFF7DCFA041E03D053
:104630006B6C402213436B642A68536810218B43D0
:104640005360002C0DD12800FFF776FE0400002CEB
:10465000E0D16B6C054A13400432FF3213436B64A4
:10466000D8E72800FFF768FEF1E7C046FEFEFFFF2F
:1046700030B583B00400002301934033C35C012BA9
:1046800000D18AE001224023C25403689A6852078D
:1046900075D4434A4868904256D09A6A01200D6802
:1046A000A84002439A62A36B8022520593421ED017
:1046B000012B1CD0022B1AD0032B18D0042B16D0A0
:1046C000052B14D0062B12D0072B10D0226850696E
:1046D000072303408868984209D05069072398430C
:1046E0005061206842698D682B40134343610B6819
:1046F0001A00103A022A4CD82A4A1268102B0ED0FF
:10470000112B09D080235B041343264A13600B68E6
:10471000102B07D0002037E08023DB03F4E7802351
:104720001B04F1E7204B18682049FBF70BFD8300C1
:1047300018184300019302E0019B013B0193019B88
:10474000002BF9D100201FE09A6A01200D68A840D3
:1047500082439A620B681A00103A022A1BD8114A47
:104760001268102B09D0112B05D0114B13400D4AA4
:104770001360002008E00F4BF8E70F4BF6E7436C9F
:10478000202213434364012000224023E25403B05B
:1047900030BD0020F8E70020F6E70220F7E7C0462A
:1047A00001100000082701400000002040420F00D7
:1047B000FFFFFFFEFFFFBFFFFFFF7FFF0D488546A6
:1047C0000D480E490E4A002302E0D458C450043369
:1047D000C4188C42F9D30B4A0B4C002301E0136040
:1047E0000432A242FBD3FDF7BDFC00F011F8FEF746
:1047F000A1FDFEE70020002000000020D4010020E1
:1048000088740008D4010020E8040020FEE70000BE
:1048100070B500260C4D0D4C641BA410A64209D1A6
:10482000002602F03DFC0A4D0A4C641BA410A6426F
:1048300005D170BDB300EB5898470136EEE7B300E1
:10484000EB5898470136F2E780740008807400083E
:10485000807400088474000803008218934200D119
:10486000704719700133F9E7F0B58BB014001D1EC5
:10487000129953DA802424061B191D0014002D23DD
:104880000B702023149E03229E43462E07D0330034
:10489000453B59424B411099013ACB18109309AB53
:1048A000049308AB0393139B00920293109B220086
:1048B00001932B0000F01CFE0700472E02D1119B34
:1048C000DB0724D5109BFB180793462E14D13B78A9
:1048D000302B0CD10022002320002900FBF7B8FD6B
:1048E000002804D10123109A9B1A139A1360139B7A
:1048F000079A1B68D3180793002200232000290081
:10490000FBF7A6FD302200280DD0079B0993380045
:10491000099B159ADB1B13600BB0F0BD0023AFE7BA
:10492000591C09911A70099B07999942F8D8EEE72A
:10493000F0B52B2385B007000C000270861C0029FF
:1049400001DA2D234C427B70092C23DD02ABDD1DE7
:104950006B1E20000A210193FBF764FD6B1E3031B2
:10496000197020000A21FBF777FC040009280ADCF3
:10497000023D30342C7002AB07333000AB4204D818
:10498000C01B05B0F0BD019DE2E72B780135337007
:104990000136F0E73023E4183370B01C7470EFE791
:1049A000F0B595B00C000A920B931A9D099001F096
:1049B00015FD036818000D93FBF7B2FB002312935B
:1049C00023680E900C930C99277E2B680722C9054B
:1049D00047D59B1893431A0008322A601A685B680F
:1049E000A264E3640122E56CA66C6B005B080F9384
:1049F0005242A74B30000F99FDF732FA002800D041
:104A000006E20122A24B524230000F99FBF730FD23
:104A1000002800D0FCE10022002330002900FBF731
:104A20001DFD002803D023002D2243331A70994D19
:104A3000472F00D8984D032300260C9A2361013399
:104A40009A4322600B9B13AA009321000A9B0998AA
:104A500000F0F2F9431C00D09CE00120404215B068
:104A6000F0BD0733B6E780236268DB00511C45D1F7
:104A7000073262600C9A0021134312AA059211AA10
:104A80000392232223600691019308A963685218B8
:104A90000292009332002B0004970998FFF7E4FE7E
:104AA00020233A0005009A43472A07D1119BDA1CBC
:104AB00002DB626893425BDD023FFFB21199652F12
:104AC0003BD8200001393A0050301191FFF730FFF8
:104AD000129A060083182361012A02DC2268D20799
:104AE00001D501332361232308AA9B181B78002BCF
:104AF000A8D023002D2243331A70A3E7672F01D0DB
:104B0000472FB7D1002A16D00C9908A80B430021D3
:104B1000069112A9059111A9039123210918236077
:104B2000019300922B000497029132000998FFF73D
:104B30009BFE0500BAE701229BE7662F19D1636847
:104B400000290CDD2161002B02D12268D20702D599
:104B500001335B182361119B0026A365C3E7002B7B
:104B600003D101222168114200D09A1C2261F2E790
:104B70006727119B1298834205DB22682361D207C5
:104B8000E9D50133E6E70122002B01DC9218D21AA5
:104B90001218EBE72268530508D423692A000A9902
:104BA00009980B9DA847431C29D156E7652F00D8CB
:104BB000DCE0A06CE16C00220023FBF749FC00283C
:104BC00035D00123354A0A9909980B9DA847431C03
:104BD00000D142E7119B129A934202DB2368DB0764
:104BE0000DD50B9D0E9B0D9A0A990998A847002593
:104BF000431C00D131E7129B013B9D420BDB236834
:104C000000259B0700D5FDE0139BE068984200DB80
:104C100025E7180023E7220001231A320A99099890
:104C20000B9EB047431C00D117E70135E3E7119B0A
:104C3000002B35DC0123194A0A9909980B9EB047CD
:104C4000431C00D109E7119B002B05D1129B002BBF
:104C500002D12368DB07D2D50B9E0E9B0D9A0A99D1
:104C60000998B0470026431C00D1F6E6119B5B4231
:104C70009E4201DB129B91E7220001231A320A991E
:104C800009980B9FB847431C00D1E6E60136EDE7D3
:104C9000FFFFEF7FC4710008C0710008D0710008E9
:104CA000A36D129E9E4200DD1E00002E35DC002307
:104CB0000C93F343DB170F930F9BA76D0C9A3340B4
:104CC000FB1A9A4232DB119B129A93423CDB236817
:104CD000DB0739D4129E119AF31BB61A9E4200DDEF
:104CE0001E00002E39DCF7430025FB170C93119AA8
:104CF000129B0C999B1A32000A409B1A9D4200DBC2
:104D00007DE7220001231A320A9909980B9FB847C0
:104D1000431C00D1A1E60135E9E733002A000A99D6
:104D200009980B9FB847431CC1D196E62200012386
:104D30001A320A9909980B9FB847431C00D18CE698
:104D40000C9B01330C93B7E70E9B0D9A0A990998B7
:104D50000B9EB047431CBDD17FE6EA1933000A9988
:104D600009980B9DA847431CBDD176E6129B012BE9
:104D700002DC01231A4238D001232A000A9909983B
:104D80000B9FB847431C00D167E60E9B0D9A0A990A
:104D900009980B9FB847431C00D15EE6A06CE16CFC
:104DA00000220023FBF754FB002808D00025129BAB
:104DB000013B9D420DDB220033005032EFE6129B97
:104DC0006A1C013B0A9909980B9DA847431CF2D124
:104DD00043E6220001231A320A9909980B9FB8472B
:104DE000431C00D139E60135E1E72A00EAE7220059
:104DF000012319320A9909980B9EB047431C00D130
:104E00002BE60135E368139A9B1A9D42EFDBFBE624
:104E100032002B0030002900FDF722F8002800D1D5
:104E200021E6034D472F00D905E6024D03E6C046B3
:104E3000CC710008C8710008F7B5150001938A68A5
:104E40000B6900900C00934200DA130022002B60E3
:104E500043321278002A01D001332B6023689B066D
:104E600002D52B6802332B60062723681F4027D00A
:104E7000230043331B785A1E93412268920630D494
:104E80002200019943320098089EB047431C25D068
:104E9000062320682A68E16803400025042B03D11B
:104EA0008D1AEB43DB171D40A3682269934201DD95
:104EB0009B1AED180027BD4220D1002010E00137D9
:104EC000E3682A689B1A9F42D2DA22000123193232
:104ED00001990098089EB047431CF0D10120404240
:104EE000FEBD3020E1184331087021005A1C4531C5
:104EF0000978A218433202331170C1E7220001235E
:104F00001A3201990098089EB047431CE6D0013739
:104F1000D1E70000F0B58BB006920A004332079348
:104F2000059004920A7E0C00109B6E2A00D18FE03F
:104F300017D8632A2CD008D8002A00D199E0582A23
:104F400054D026004236327029E0642A01D0692A02
:104F5000F7D121681A68080623D5111D1960156854
:104F600025E0732A00D188E008D86F2A29D0702A5A
:104F7000E7D1202209680A43226003E0752A20D085
:104F8000782ADED122007821453211706C4A30E057
:104F90000E001A684236111D196013683370012320
:104FA00079E04906D9D5111D19600023D55E002D81
:104FB00003DA2D23049A6D421370624B0A27039380
:104FC0002FE020681968050603D5081D18600D68D4
:104FD00005E04006F9D50D68081D1860ADB2594BC3
:104FE000082703936F2A18D00A2716E045310A7064
:104FF000544A03921A682168101D18601568080643
:1050000022D5CB0702D52023194321601027002D7C
:1050100003D1202322689A432260230000224333D5
:105020001A706368A360002B5CDB04222168914343
:105030002160002D58D1049E002B64D02600039BD4
:1050400042361B7833705EE04806DAD5ADB2D8E759
:1050500009681A68080605D5111D19601368626988
:105060001A6006E04906F7D5111D19601368A28A77
:105070001A800023049E236154E01A68111D1960F0
:10508000166800216268300001F02AFA002801D079
:10509000801B6060636823610023049A137041E001
:1050A0002369320006990598079DA847431C43D001
:1050B000236800259B070FD4099BE06898423DDADE
:1050C00018003BE022000123193206990598079E3B
:1050D000B047431C30D00135E368099A9B1A9D42C2
:1050E000F0DBE9E7002DA9D0049E28003900FBF78A
:1050F000AFF8039B013E5B5C280033703900FBF77F
:1051000021F8051EF1D1082F09D12368DB0706D548
:1051100063682269934202DC3023013E3370049BB2
:105120009B1B2361079B09AA00932100069B0598FE
:10513000FFF782FE431CB3D1012040420BB0F0BD0B
:10514000E3710008D27100080FB40B4B13B51C6853
:10515000002C05D0A369002B02D1200001F0A8F893
:1051600005AB049AA1682000019301F08DFD16BCE7
:1051700008BC04B01847C0460400002070B5050004
:105180000E00002804D08369002B01D101F090F8B3
:10519000AB69AC68002B02D1280001F089F8244BE0
:1051A0009C420FD16C68A3891B0702D52369002B91
:1051B00020D12100280000F0A1F800281AD00120F9
:1051C000404270BD1B4B9C4201D1AC68EBE71A4BCF
:1051D0009C42E8D1EC68E6E7013B0136A360002B76
:1051E00004DAA269934216DB0A2914D023685A1CF8
:1051F000226019703178A3680029EDD1013BA360CA
:10520000002B0FDA22000A31280000F021F8431C9D
:10521000D5D00A20D5E72200280000F019F8431C59
:10522000E8D1CCE70A2023685A1C22601870C8E72E
:1052300024720008447200080472000810B5034B81
:1052400001001868FFF79AFF10BDC0460400002057
:10525000F8B505000E001400002804D08369002B67
:1052600001D101F025F8224B9C422DD16C68A36935
:10527000A360A3891B0731D52369002B2ED0236897
:105280002269F7B2981A6369F6B2984205DB2100E9
:10529000280000F09FFF002826D1A3680130013BC1
:1052A000A36023685A1C22601F706369984204D06F
:1052B000A389DB071AD50A2E18D12100280000F097
:1052C00089FF002812D00FE00A4B9C4201D1AC6844
:1052D000CDE7094B9C42CAD1EC68C8E72100280001
:1052E00000F00CF80028CAD0012676423000F8BD44
:1052F000247200084472000804720008364B70B52E
:105300001D6806000C00002D05D0AB69002B02D1F2
:10531000280000F0CDFF314B9C420FD16C680C236C
:10532000E25E93B219072DD4D90611D409230120C6
:10533000336037331343A381404270BD284B9C42F6
:1053400001D1AC68EBE7274B9C42E8D1EC68E6E77B
:105350005B0713D5616B002908D0230044339942C1
:1053600002D0300001F0C0FB002363632422A38934
:105370009343A38100236360236923600823A289E8
:105380001343A3812369002B0BD1A0218022A38981
:10539000890092000B40934203D02100300001F0BD
:1053A00051F80123A289134011D00023A36063693F
:1053B0005B42A361002023698342BED10C23E25EDD
:1053C0001306BAD540231343A3810138B5E79207EA
:1053D00000D46369A360EDE7040000202472000894
:1053E0004472000804720008F0B503690C6989B0C2
:1053F0000700059100269C426DDC0B00013C143334
:10540000A50003935B1904930300143302935D1901
:10541000049B28681B68591C0193FAF793FE0190BE
:10542000B0422DD0039B02989C460696624608CA5D
:105430009446019A99B251431B0C534389190A0CA3
:105440009B18079302881E0C069B89B2D21803682A
:10545000521A190C6B469B8BCB1A11145B1819143A
:1054600092B21B041A43049B069104C06345DDD22B
:105470002B68002B04D1029B043DAB422ED33C6130
:105480000599380001F051FA002823DB0025019B23
:10549000029801330399019308C9028855199AB2F9
:1054A000AA1A05681B0C2D0CEB1A15145B191D1498
:1054B00092B21B04134308C0049B8B42ECD2029AA5
:1054C000A300D3181A68002A04D1029A043B9A4216
:1054D00009D33C61019E300009B0F0BD2B68002B60
:1054E000CDD1013CC7E71A68002AF2D1013CECE7B4
:1054F000F0B516001F00446A9DB00490259D0696E5
:105500000797002C08D1102000F0E0FF049B5862A0
:10551000446084600460C460049B5B6A196800296D
:105520000BD05A68012393404A608B60049801F0C5
:1055300023F80022049B5B6A1A60079B002B1FDA8A
:1055400001232B607B005B080793079CB74B22006D
:1055500019931A409A4216D1B54B249A1360069BB0
:10556000002B03D1240301D100F091FDB14B269A09
:105570000A93B14B002A01D000F08FFD00F08FFD9F
:1055800000232B60E1E7069E079F002200233000E6
:105590003900FAF75DFF051E0ED00123249A13602F
:1055A000A64B269A0A93002A01D100F078FDA44A5E
:1055B00026990A6000F073FD1AAB01931BAB0093B0
:1055C00032003B00049801F02DFA630005905B0D5A
:1055D00000D17FE03A039B4C120B144321009A4AFE
:1055E000300018959E180022984BFCF723F9984A32
:1055F000984BFBF79FFE984A984BFAF757FF040029
:1056000030000D00FCF780FC954A964BFBF792FEAC
:1056100002000B0020002900FAF748FF04000D00EB
:10562000FCF73EFC00220390002320002900FAF73B
:1056300015FF00280ED00398FCF766FC0B00020053
:1056400029002000FAF704FF030058425841039B49
:105650001B1A039301231693039B162B0FD8824921
:10566000DB00C91808684968069A079BFAF70AFF21
:1056700000284BD0039B013B0393002316931A9BF6
:105680009E1B00230B933300013B0C9304D5012395
:105690009B1B0B9300230C93039B002B38DB039A7B
:1056A0000C9B944663440C9300230F920893229B17
:1056B0000125092B00D991E0052B02DD0025043BD3
:1056C0002293229B981E032800D991E0FAF730FD1F
:1056D000828429761A9B1B9A9E18644BF218202A02
:1056E0000FDD634B0698F318D84040239B1A9C406B
:1056F0002043FCF74BFC01235E4C013E0919189333
:1057000071E7202306989B1A9840F2E71690B6E7B7
:105710000B9B039A9B1A0B935342089300230F93FE
:10572000C5E701230E93239B002B65DD1F000D931E
:10573000049A546A002262600432110014319942C2
:105740005FD96168049800F0DFFE049B20605B6A0B
:105750001B680A930E2F00D905E1002D00D102E14C
:10576000069B079C14931594039B002B00DC85E09B
:105770001A000F213C4B0A40D2009B185C681B6842
:1057800010931194039B02241D11EB060AD53A4B8A
:105790000D401A6A5B6A14981599FBF797F9069001
:1057A00007910134344E002D30D1109A119B069888
:1057B0000799FBF78BF9069007917AE00123239A6A
:1057C0000E939446039B63445F1C0D933B1EAFDC1A
:1057D0000123ADE70023A5E70023F0E700230E95A2
:1057E0002293013B00220D931F00133323929FE766
:1057F00001230E93023BF5E701230D931F001A00CE
:10580000F4E7616852000131616096E701231D42AF
:1058100008D010981199E41832687368FBF78AFD74
:10582000109011916D100836BDE7C0460000F07F62
:105830000F270000FD71000800720008D0710008F9
:10584000D17100080000F03F01FCFFFF0000F83FAD
:1058500061436F63A787D23FB3C8608B288AC63F76
:10586000FB799F501344D33F90720008320400002C
:1058700012040000000010FE68720008039B02245E
:10588000002B16D0149815995D420F23CA4A2B405D
:10589000DB00D3181A685B68FBF74CFD0023069009
:1058A0000791C64E2D11002D00D08CE0002B00D0AA
:1058B00081E7169B002B00D191E0069A079B10927E
:1058C0001193109811990022BD4BFAF7C7FD0028DB
:1058D00000D184E0002F00D181E00D9B002B3EDD44
:1058E00010981199039B00225E1EB64BFBF722FD18
:1058F000069007910D9D01342000FCF705FB069AE8
:10590000079BFBF717FD0022AF4BFAF7CFFD129074
:105910001391129B139CAD4A10931194139B9C18E6
:105920001194002D5ED1069807990022A84BFBF731
:1059300081FF109A230006900791FAF7A3FD002833
:1059400000D001E3A3481399844661440B000698F4
:105950000799109AFAF782FD002800D0E8E2149B1C
:10596000159C069307941B9B002B00DA57E1039AC2
:105970000E2A00DD53E1904BD2009B185C681B6837
:1059800008930994239B002B00DBCEE0002F00DD61
:10599000CBE000D0CFE20898099900228C4BFBF7AE
:1059A000C9FC069A079BFAF777FD3E000897002886
:1059B00000D0A4E20A9B0A9A5D1C31231370039B5A
:1059C000013303939FE20122154205D0A4183268E7
:1059D0007368FBF7AFFC01236D10083663E7039E85
:1059E0003D0089E70A9A691E521917920E9A724B66
:1059F000C900002A4AD05B181A685B680020764903
:105A0000FBF764F8109A119BFBF714FF0A9B1090A8
:105A10001191129306980799FCF742FA0400FCF7DB
:105A200073FA02000B0006980799FBF703FF129B1D
:105A300030345D1C1C70109A119B06900791FAF788
:105A40000DFD002865D1069A079B00205C49FBF7F5
:105A5000F1FE109A119BFAF701FD002800D0BEE07C
:105A6000179B9D4200D17AE7109811990022554B5F
:105A7000FBF760FC00221090119106980799514B9A
:105A8000FBF758FC129506900791C3E75918086870
:105A90004968109A119BFBF74DFC109011910A9CDC
:105AA000179D06980799FCF7FBF91290FCF72CFA62
:105AB00002000B0006980799FBF7BCFE129B0690AC
:105AC000079130332370179B01340022A34224D165
:105AD000414B10981199FAF7E9FC02000B00069867
